:0E0000000C9449000C9400000C9400000C9429
:10000E0000000C9400000C9400000C9400000C9462
:10001E0000000C9400000C94A7000C9400000C94AB
:10002E0000000C9400000C9400000C9479000C94C9
:10003E0000000C9400000C9400000C9400000C9432
:10004E0000000C9400001027E80364000A00010071
:10005E0000100001100001004368616E6E656C2097
:10006E0025643A25644D760080C001002D4E414E28
:10007E0000494E4600000200730176000100770130
:10008E0078000000F894EE27ECBBF1E0FBBFEBBF6D
:10009E00E5BF8DE0A2E0BB27ED938A95E9F780E0FE
:1000AE0094E0A0E6ED930197E9F7E4E8F0E085919E
:1000BE009591009761F0A591B59105901590BF01AE
:1000CE00F00105900D920197E1F7FB01F0CFEFE5FE
:1000DE00EDBFE4E0EEBFC0E6D1E00C947600ADD00B
:1000EE00FFCFFFCF8A93AA93BA93EA93FA93EFB70F
:1000FE00EA93E0917201A0E6B1E0F0E0EE0FFF1F8F
:10010E00AE0FBF1FE4B1F5B1ED93FC93A091720158
:10011E00AF5FA0937201A83018F0E0E0E093720197
:10012E00E0917201E05CE7B98BE18A95F1F7369ABE
:10013E00E991EFBFF991E991B991A991899118953A
:10014E000A921A92FA926A937A938A939A93AA933C
:10015E00BA93EA93FA93EFB7EA9360970E94730506
:10016E00E0916001F0916101E0937001F0937101F3
:10017E00AAE5B0E00E943905DF01E0E0F4E00E945C
:10018E0051058F010E942C050E944B04A3E3B3E39B
:10019E0083E290E40E94CE04A0E0B0E080EA90E416
:1001AE000E947E04A0E0B0E080E09FE30E947E0407
:1001BE000E9414049F012CBFFE013496FA93EA9319
:1001CE00E6E6F0E0FA93EA93E0E0F0E060E070E05B
:1001DE000E946C05E0917001F0917101A5E0B0E014
:1001EE000E943905DF01EFEFF3E00E945105A8EE02
:1001FE00B3E00E9439050E942C050E946C0588E030
:10020E000E94C7022C96E0E0EA93A0E00E941B0336
:10021E00DE0114960E9449030E947A056496E991C4
:10022E00EFBFF991E991B991A9919991899179913C
:10023E006991F990199009901895E0E0EABBEBBB33
:10024E00E7BBE8BBE4BBE5BBE1BBE2BBE0E4E7B97F
:10025E00EBEEE6B9E0E0E0BFE5E6E3BFE0E0E2BFEB
:10026E00E0E8ECBFE0E0EFBDEEBDEDBDECBDE7BDFF
:10027E00E6BDEBBDEABDE9BDE8BDE2BDE5BDE4BD51
:10028E00E3BDE1E0E9BFE0E0E5BFE4BFEAB9A0E12C
:10029E000E945A0378940895BA93AA931A930A93D4
:1002AE00AA81BB8112960E946405309759F1AA81EA
:1002BE00BB8114960E9464058F01309761F0023065
:1002CE00E0E01E0798F0F80131978F01AA81BB81FB
:1002DE001496ED93FC93AA81BB811296ED91FD913C
:1002EE003196FE93EE933197AC81A083AA81BB81A8
:1002FE000E946405FF232AF0ED91FD913196FE9345
:10030E00EE9306C0AA81BB81EFEFFFEFED93FC9356
:10031E001981088125960895BA93AA9326970E946B
:10032E00710510E0AC85BD85E0E0F0E0ED93FC9347
:10033E00EA89FB893196EA8BFB8B3197E4912E2F5C
:10034E00E03009F415C1E12FE03039F4253211F413
:10035E0011E002C00E94A1030AC1E130A9F42532C6
:10036E0019F40E94A10302C112E040E000E02D3218
:10037E0011F401E0FCC02B3211F44BE2F8C0203234
:10038E0011F440E2F4C002C0E23039F450E013E060
:10039E00203311F40068EBC003C0E33009F0E7C06E
:1003AE00203310F02A3308F007C0AAE05A9F502DD0
:1003BE00E22FE0535E0FDBC0E22FE33649F40E94DA
:1003CE00A803E889F989A481AA930E94AE03CEC03E
:1003DE00E33741F40E94A8030E94B4030E948803ED
:1003EE001E2F0AC0E03761F40E94A8030E94B403D6
:1003FE000E9494031E2F086002600F7730E034C015
:10040E00E43611F0E93611F4046002C0E53731F438
:10041E00E4E5F0E0EE83FF8315E00CC0E83511F45F
:10042E00086003C0E83709F0A1C0EEE5F0E0EE8306
:10043E00FF8314E002FF14C00E94A8030E94BE03B3
:10044E00AB85AA233AF4EA85FB850E942005EA874C
:10045E00FB874DE2403011F01F5F01C00B7F04C0DF
:10046E000E94A8030E94BE0300FD11C0151778F468
:10047E0007FF08C002FF04C00B7F242F115001C0DC
:10048E0020E301C020E20E94A1035150EFCF312F93
:10049E0001FF17C03030A1F003FF06C0EE81FF81CF
:1004AE002591EE83FF8305C0AE81BF812D91AE8372
:1004BE00BF830E94A103503009F051503150EACF52
:1004CE004BC020E3EE81FF810E946805E887F98723
:1004DE00EE81FF813296EE83FF83E885F985AA854A
:1004EE00BB85AE17BF0750F02F5FA885B985EA858B
:1004FE00FB85EA1BFB0BEA87FB87EFCF2A3328F03D
:10050E0003FF02C0295F01C0295D04FD1AC021331B
:10051E0020F4A885B985119709F409C0531710F076
:10052E0000FF01C013C020E207FF0BC020E30061F3
:10053E0002FF07C00B7F4A930E94AE03503009F0B2
:10054E0051500E94A103503009F051503150A885EE
:10055E00B985129708F0B5CF00FF08C0503031F0C2
:10056E005150E0E2EA930E94AE03F8CF10E0E0CEE5
:10057E00AC85BD850E9464050E9478056496089539
:10058E00FF92F82E26970E9473050E94C60330979D
:10059E0019F4EFEFFFEF23C0DE0116960E941C0543
:1005AE008D010E94C603EE83FF83E0E0E887E987B2
:1005BE00DE011A960E941C050E946405FA93EA93C6
:1005CE001A930A93E3E5F1E0FA93EA93DE011A96A1
:1005DE00A3DE9F01AE81BF81E0E0EC93F9010E94A2
:1005EE007A052A96FF900895AA93E5B3EF70AE2F81
:1005FE00E881E07FEA2BE5BB8DE08A95F1F7AA9AB8
:10060E008DE08A95F1F7AA988DE08A95F1F777C07B
:10061E00AA93A881E9DFE881E295E883A881E4DF67
:10062E0085E88A95F1F76BC0AA93E881F0E0ED5862
:10063E00FE4FE081A981AE0FEBDF598048802296F4
:10064E000895A2E00E94CD03ACE0E2DFA1E00E949B
:10065E00CD03E0E04E2E5E2E0895AA93A881AA3017
:10066E0011F0571448F0E0E0EA934394A42DDCDF38
:10067E00A881AA3009F443C05394A89AA881C8DF70
:10068E00A8983DC0BA93AA931A93A981BA81ED9105
:10069E00A983BA831E2FE03019F0A12FDEDFF5CF2C
:1006AE00188123960895AA93E4B3E06FE4BBA29A4F
:1006BE00A09AA19AAA98A898A9987880E881E0585B
:1006CE00E0937501E881E054E0937601A4E1B0E097
:1006DE000E94DB030E94D3030E94D3030E94D30324
:1006EE00A0E282DF88EC90E00197F1F7A8E290DFBC
:1006FE00A4E08EDFA5E88CDFA6E08ADFA2DF2196DC
:10070E000895BA93AA93A991B991EE27FF276D91F7
:10071E00662311F03196FBCF0895BA93AA93AA27B8
:10072E00BB27E991F9910590002011F01196FBCFAE
:10073E00FD0108952A93AD85BE85EF85F88909954B
:10074E000895E889F9893497E88BF98B0895AD857A
:10075E00BE85EF85F88909950895A889B9891496FB
:10076E000E946405EE83FF83AE81BF810895A88940
:10077E00B98914960E946405EA87FB870895DE0105
:10078E001C960E941C050E94640508950E940F038A
:10079E00A3E0B0E00C94DB03A0E30E94FB0288EC24
:1007AE0090E00197F1F70895109639F080ED97E0FB
:1007BE000197F1F7A8951197C9F70895552342F4BB
:1007CE00503811F4E0FF04C03196691F791F6BF0A9
:1007DE0050E8572711F45F93C8C05F3F31F0660FA2
:1007EE00000C57956795752F08955F9300200AF0BA
:1007FE00C8C0C1C050E8192E1522880F991F952721
:10080E00550F879550E8072E0522660F771F75271F
:10081E00550F67950895689401C0E8945F93F2DFD1
:10082E00703818F07F3F08F4A0C056E1571BAAF4A9
:10083E00519558300EF4593030F0EFEFFFEF6FEF67
:10084E007FE777F91AC077275523B9F0EE0FFF1F10
:10085E00661F771F5A95D1F710C07727583028F0AA
:10086E00EF2FF62F672F5850F9CF552331F076958D
:10087E006795F795E7955A95D1F700200AF4DDD0E4
:10088E005F910895689401C0E8943097604070407D
:10089E00B1F0002426F0772312F40094CED0172E58
:1008AE007EE1112032F07A95EE0FFF1F661F111CAC
:1008BE00F9CFEF2FF62F612D5F938ADF5F910895A9
:1008CE004F93AF01FD01DA01AB01BC01CA01402D0E
:1008DE00012C142E4F910895EA0FFB1F681F0895E7
:1008EE00E095F0956095EF5FFF4F6F4F08955F9322
:1008FE0081DF903839F1703821F1572F591B2BF1C8
:10090E0012F4DEDFFACF583118F0AA27BB2788275A
:10091E00583028F0AB2FB82F88275850F9CF5523D1
:10092E0029F08695B795A7955A95D9F7502D51254B
:10093E0072F0D2DF38F46795F795E795739513F457
:10094E0020C0BEDF45DF5F910895D8F7FBCFEA1BCD
:10095E00FB0B680B51F010F40094C2DF662392F388
:10096E00EE0FFF1F661F7A95CBF7EE27FF27662740
:10097E0077275F910895EFEFFFEF6FE77FEF5F91BE
:10098E000895EFEFFFEF6FE77FE75F9108955F93B5
:10099E0031DF703851F3903841F301240894791FF8
:1009AE0023F41CF300203AF3ECCF0F921F932F93F6
:1009BE003F934F93112722279927689FA0018F9F5E
:1009CE00302D410D591F6B9F300D411D591F8E9FAC
:1009DE0027D0BF9F25D06A9F23D0BE9F1DD0AF9F2B
:1009EE001BD0AE9F110D291F391F491F591FE32F11
:1009FE00F42F652F522F4F913F912F911F910F90F2
:100A0E0066232AF0550FEE1FFF1F661F02C0739557
:100A1E004BF2D4DE5F910895100D211D391F02C0D7
:100A2E00200D311D491F591F08950024AF0DB01D13
:100A3E000895F195E195F0400895F09560957095C3
:100A4E00E195FF4F6F4F7F4F08956F2F660F660B27
:100A5E00762F0895FA9FF02DEB9FF00DEA9FE02D73
:100A6E00F10D08951CD0F6DF0EF4E3DF0895002497
:100A7E00112490E1AA0FBB1F001C111C0E1A1F0A95
:100A8E0018F40E0E1F1E01C0A1609A9599F7FD0174
:100A9E00D001089504D0EBDF0EF4CBDF0895E89477
:100AAE00F7FF02C0C6DF6894B7FF06C0A095B095E9
:100ABE00119600F8039400FA0895ED91FC911197A8
:100ACE0008950590F491E02D08957A936A93FA9320
:100ADE00EA9308955A934A933A932A931A930A9350
:100AEE0008955D814C813B812A8119810881089589
:00000001FF
