:020000000C945E
:100002003B010C9400000C9400000C9400000C9432
:1000120000000C9400000C9400000C9400000C945E
:1000220000000C9400000C9400000C9400000C944E
:1000320000000C9400000C9400000C9400000C943E
:1000420000000C9400000C9400000C9400000C942E
:10005200000005072060000000000000005F0000B3
:100062000007000700147F147F14242A7F2A12231A
:100072001308646236495522500005030000001C33
:100082002241000041221C00082A1C2A0808083EBE
:100092000808005030000008080808080030300046
:1000A2000020100804023E5149453E00427F4000B4
:1000B20042615149462141454B311814127F1027A4
:1000C200454545393C4A49493001710905033649DC
:1000D200494936064949291E00363600000056367F
:1000E20000000008142241141414141441221408AC
:1000F200000201510906324979413E7E1111117EF9
:100102007F494949363E414141227F4141221C7F7C
:10011200494949417F090901013E414151327F0864
:1001220008087F00417F41002040413F017F0814C1
:1001320022417F404040407F0204027F7F0408103A
:100142007F3E4141413E7F090909063E4151215E00
:100152007F09192946464949493101017F01013F79
:100162004040403F1F2040201F7F2018207F631403
:100172000814630304780403615149454300007F76
:100182004141020408102041417F000004020102A3
:10019200044040404040000102040020545454787E
:1001A2007F484444383844444420384444487F38E3
:1001B20054545418087E090102081454543C7F0810
:1001C20004047800447D40002040443D00007F103C
:1001D200284400417F40007C041804787C08040411
:1001E2007838444444387C14141408081414187CD5
:1001F2007C080404084854545420043F4440203CE2
:100202004040207C1C2040201C3C4030403C442884
:100212001028440C5050503C4464544C440008365E
:10022200410000007F000000413608000201020484
:10023200027F4141417FFF0007001C007000E00087
:100242003C000600FF00000000000000000000006B
:10025200000000000000000103070F1F3F7FFF00A6
:1002620001002D4E414E00494E4600000100800122
:1002720062020000F894EE27ECBBF1E0FBBFEBBF9B
:10028200E5BF8DE0A2E0BB27ED938A95E9F780E018
:1002920094E0A0E6ED930197E9F7EEE6F2E08591AE
:1002A2009591009761F0A591B59105901590BF01C8
:1002B200F00105900D920197E1F7FB01F0CFEFE518
:1002C200EDBFE4E0EEBFC0E6D1E00C9468012697F2
:1002D200E0E0EABBEBBBE7BBE8BBE4BBE5BBE1BBF1
:1002E200E2BBE4E5F0E0E883F983E0E0EA83EB8354
:1002F200EC83ED83DE01DAD002D0FECFFFCF289768
:10030200E0E0E883E983EA83EB83E8E0EC83E0E082
:10031200ED83EE83EF830E94630340E050E0E0E070
:10032200EE83EF83AE81BF81A436E0E0BE07A4F581
:10033200E0E8E2BBFA01A8E3B2E0EE0FFF1FEA0F2A
:10034200FB1F0E942303A2E0B0E00E943B03E0E017
:10035200E2BBFA01EE0FFF1FE85BFD4F0E94230391
:100362004F5F5F4FEA85FB85E417F50711F4488577
:100372005985EC85FD853196A7E0B0E00E945103D6
:10038200EC87FD87A2E0B0E00E943B03EE81FF8193
:100392003196EE83FF83C6CFAA85BB85A83FE0E0F6
:1003A200BE0761F4E8E0F0E0EA87FB87E0E0E88777
:1003B200E98740E050E0EC87ED870AC0EA85FB85DB
:1003C2007096EA87FB87E885F9857096E887F98752
:1003D200A6CF0000909A000008959098959A949A5A
:1003E20008951A93F6DF13B39098E12F19910895A7
:1003F200AA931A93E0E0E4BB919A9298A981E2E071
:10040200EA1B1E2F10FF02C0959A01C0959811FF9A
:1004120002C0949A01C09498E4DFE078E9F7188169
:10042200FFC0AA93A981E4DF0E942B03F9C0E091E7
:100432007E01EA93E0917D01EF73E064AE2FF1DF7C
:10044200E0917E01EA93E0917F01E86BAE2FE9DF54
:100452000895AA93E981E0937D01E295EF70E69514
:10046200E695E0937E01E881E0937F01E0DFD8C06A
:10047200A0917D01AF5FA0937D01A03818F0E0E06C
:10048200E0937D01E0917D01EF7331F4E0917D0114
:10049200EA93A0917F01DDDF0895AA93A0917E01E6
:1004A200A7DF929A0E942B0321960895BA93AA93EA
:1004B2001A93889A899A8A9A8B9A939A8D9A8C9A85
:1004C2008CDF9398A4E6B0E00E943B03939A10E07D
:1004D200123040F41A93AFE3A4DF1A931395A0EC01
:1004E200A0DFF6CFE1E0E0936001E0E0E09361019C
:1004F200E981FA813097A9F0A981BA810E945B0350
:10050200E0936401F093650112960E945B03E0930D
:100512007901F0937A01A981BA8114960E945B0352
:100522000AC0E0E0F0E0E0936401F0936501E0933B
:100532007901F0937A01E0937B01F0937C01E1E091
:10054200E0936601E0936701E0936801EFEFE093C7
:100552006901E1E0E0937001E1E7F1E0FA93EA93E7
:10056200EFEFEA93A8E0B0E00E94130304D0E1E0C9
:100572001881239608950E94650300E030E0E0911F
:100582006101E03009F00FEF383078F4E0E0EA93EF
:10059200A32F3F5F5EDF10E0A12F1F5FA03820F482
:1005A200A02F7BDF65DFF8CFEFCFE0E0EA93A0E09A
:1005B20050DFE0E0EA93A0E028D00E946C0324968A
:1005C20008950E9434031CF0E0E0F0E029C0A88105
:1005D200B981A038E0E0BE071CF0EFE7F0E020C0F0
:1005E200E881F9811DC00E9434031CF0E0E0F0E0D4
:1005F20017C0A881B981A034E0E0BE071CF0EFE388
:10060200F0E00EC0E881F9810BC0AA93A981BB2753
:10061200D8DFE0936201A881BB27E5DFE0936301A5
:1006220022960895BA93AA93B981A881109631F0BF
:10063200FC81EB816A8161931197E9F7EB81FC817F
:1006420025960895049008BAEC85A1E00E9449031A
:10065200EBBB08959198EFEFE4BBE881E5BB0E9404
:10066200EA010C94EE01BA93AA93A881B9810E947F
:100672005F030895109639F080ED97E00197F1F746
:10068200A8951197C9F70895F195E195F04008955D
:10069200EE230E2EEA2F19F0EE0F0A94E9F70895D1
:1006A200E894F7FF02C0F0DF6894EA23FB230EF41C
:1006B200EBDF0895ED91FC911197089500240A163D
:1006C2000B0608955A934A933A932A931A930A93DC
:1006D20008955D814C813B812A81198108810895A9
:00000001FF
