:020000000C945E
:100002002F000C9400000C9400000C9400000C943F
:1000120000000C9400000C9400000C9400000C945E
:1000220000000C9400000C9400000C9400000C944E
:1000320000000C9400000C9400000C9400000C943E
:1000420000000C9400000C9400000C9400000C942E
:1000520000003F065B4F666D7D077F6FF894EE27C9
:10006200ECBBF1E0FBBFEBBFE5BF8DE0A2E0BB273D
:10007200ED938A95E9F780E094E0A0E6ED9301978D
:10008200E9F7EFE5EDBFE4E0EEBFC0E6D1E00C94A6
:1000920064001A930A93EFEFE4BBE1BBE0E0E2BB3A
:1000A20009E010E0112362F0F801EC5AFF4F0490CE
:1000B20005BAA8EEB3E00E94670001501040F2CFEB
:1000C200099119910895E5DFFECFFFCF109639F01F
:1000D20080ED97E00197F1F7A8951197C9F7089578
:00000001FF
