:100000000C9440000C9400000C9400000C94000030
:100010000C9400000C9400000C9400000C94000060
:100020000C9400000C9400000C9400000C94000050
:100030000C9400000C9400000C9471000C940000CF
:100040000C9400000C9400000C9400000C94000030
:100050000C9400001027E80364000A00010000105F
:100060000001100001004368616E6E656C2025641C
:100070003A25644D760080C00200830176000000BE
:10008000F894EE27ECBBF1E0FBBFEBBFE5BF8DE0E2
:10009000A2E0BB27ED938A95E9F780E094E0A0E623
:1000A000ED930197E9F7E8E7F0E0859195910097E6
:1000B00061F0A591B59105901590BF01F0010590F3
:1000C0000D920197E1F7FB01F0CFEFE5EDBFE4E022
:1000D000EEBFC0E6D1E00C946D0031D046D0FECF2B
:1000E000FFCF8A93AA93BA93EA93FA93EFB7EA936E
:1000F000E0918001A0E6B1E0F0E0EE0FFF1FAE0F4F
:10010000BF1FE4B1F5B1ED93FC93A0918001AF5F07
:10011000A0938001A83018F0E0E0E0938001E09126
:100120008001E05CE7B98BE18A95F1F7369AE991B5
:10013000EFBFF991E991B991A991899118956097CB
:100140001A930A93E0E0EABBEBBBE7BBE8BBE4BB76
:10015000E5BBE1BBE2BBE0E4E7B9EBEEE6B9E0E02A
:10016000E0BFA0E1D1D078946CC060971A930A9355
:1001700000E010E00830E0E01E070CF05CC0E0E0BA
:10018000F0E0E0938101F0938201309729F50E941D
:100190007303FF93EF930E948A03A3E3B3E383E720
:1001A0009FE30E944004AF91BF910E949803A0F08A
:1001B0000E947303FF93EF930E948A03A6E6B6E6BC
:1001C00086E89FE30E944004AF91BF910E9498038C
:1001D00011F008F001C01FC0FE013296FA93EA93B5
:1001E000E6E6F0E0FA93EA93F8010E94BE040E946A
:1001F000EB040E947303662777270E94EB0488E0D4
:100200000E9426032C96DE0112966DD0A8E5B2E07E
:100210000E94D90347D0F801A0E7B1E0EE0FFF1F1D
:10022000EA0FFB1FBF010E947303DB01ED93FC93F8
:100230000F5F1F4F9FCFE1E0F0E0E0938101F0936B
:1002400082011981088162960895AA93E5B3EF703F
:10025000AE2FE881E07FEA2BE5BB8DE08A95F1F7D0
:10026000AA9A8DE08A95F1F7AA988DE08A95F1F720
:1002700077C0AA93A881E9DFE881E295E883A881A5
:10028000E4DF85E88A95F1F76BC0AA93E881F0E096
:10029000ED57FE4FE081A981AE0FEBDF598048801A
:1002A00022960895A2E00E949F03ACE0E2DFA1E065
:1002B0000E949F03E0E04E2E5E2E0895AA93A8812F
:1002C000AA3011F0571448F0E0E0EA934394A42DCB
:1002D000DCDFA881AA3009F443C05394A89AA8810E
:1002E000C8DFA8983DC0BA93AA931A93A981BA818E
:1002F000ED91A983BA831E2FE03019F0A12FDEDF24
:10030000F5CF188123960895AA93E4B3E06FE4BB78
:10031000A29AA09AA19AAA98A898A9987880E88108
:10032000E058E0938501E881E054E0938601A4E180
:10033000B0E00E94D9030E94A5030E94A5030E9479
:10034000A503A0E282DF88EC90E00197F1F7A8E234
:1003500090DFA4E08EDFA5E88CDFA6E08ADFA2DFD5
:1003600021960895BA93AA931A930A93AA81BB81FE
:1003700012960E94E304309759F1AA81BB8114962A
:100380000E94E3048F01309761F00230E0E01E0725
:1003900098F0F80131978F01AA81BB811496ED93F3
:1003A000FC93AA81BB811296ED91FD913196FE934B
:1003B000EE933197AC81A083AA81BB810E94E304B4
:1003C000FF232AF0ED91FD913196FE93EE9306C046
:1003D000AA81BB81EFEFFFEFED93FC9319810881B8
:1003E00025960895BA93AA9326970E94020510E0D5
:1003F000AC85BD85E0E0F0E0ED93FC93EA89FB89F4
:100400003196EA8BFB8B3197E4912E2FE03009F483
:1004100015C1E12FE03039F4253211F411E002C0AA
:100420000E94AD030AC1E130A9F4253219F40E94FB
:10043000AD0302C112E040E000E02D3211F401E012
:10044000FCC02B3211F44BE2F8C0203211F440E230
:10045000F4C002C0E23039F450E013E0203311F46C
:100460000068EBC003C0E33009F0E7C0203310F0B0
:100470002A3308F007C0AAE05A9F502DE22FE0531C
:100480005E0FDBC0E22FE33649F40E94B403E88933
:10049000F989A481AA930E94BA03CEC0E33741F43C
:1004A0000E94B4030E94C0030E945A031E2F0AC078
:1004B000E03761F40E94B4030E94C0030E94660307
:1004C0001E2F086002600F7730E034C0E43611F070
:1004D000E93611F4046002C0E53731F4E4E5F0E0F8
:1004E000EE83FF8315E00CC0E83511F4086003C00B
:1004F000E83709F0A1C0EEE5F0E0EE83FF8314E0F9
:1005000002FF14C00E94B4030E94CA03AB85AA2351
:100510003AF4EA85FB850E94B204EA87FB874DE244
:10052000403011F01F5F01C00B7F04C00E94B40374
:100530000E94CA0300FD11C0151778F407FF08C018
:1005400002FF04C00B7F242F115001C020E301C023
:1005500020E20E94AD035150EFCF312F01FF17C0B1
:100560003030A1F003FF06C0EE81FF812591EE83BC
:10057000FF8305C0AE81BF812D91AE83BF830E94F2
:10058000AD03503009F051503150EACF4BC020E359
:10059000EE81FF810E94E704E887F987EE81FF8101
:1005A0003296EE83FF83E885F985AA85BB85AE1771
:1005B000BF0750F02F5FA885B985EA85FB85EA1B48
:1005C000FB0BEA87FB87EFCF2A3328F003FF02C03B
:1005D000295F01C0295D04FD1AC0213320F4A885DC
:1005E000B985119709F409C0531710F000FF01C035
:1005F00013C020E207FF0BC020E3006102FF07C029
:100600000B7F4A930E94BA03503009F051500E9468
:10061000AD03503009F051503150A885B98512977B
:1006200008F0B5CF00FF08C0503031F05150E0E283
:10063000EA930E94BA03F8CF10E0E0CEAC85BD8506
:100640000E94E3040E94090564960895FF92F82E23
:1006500026970E9404050E94D203309719F4EFEF09
:10066000FFEF23C0DE0116960E94AE048D010E94AA
:10067000D203EE83FF83E0E0E887E987DE011A9684
:100680000E94AE040E94E304FA93EA931A930A9339
:10069000E2EBF1E0FA93EA93DE011A96A3DE9F0102
:1006A000AE81BF81E0E0EC93F9010E940B052A9630
:1006B000FF900895BA93AA93A991B991EE27FF27C5
:1006C0006D91662311F03196FBCF0895BA93AA93EA
:1006D000AA27BB27E991F9910590002011F0119606
:1006E000FBCFFD010895F801A0E6B1E0EE0FFF1F7A
:1006F000AE0FBF1F0E94E304A5E0B0E00E94C80453
:10070000DF01EFEFF3E00E94D004A8EEB3E00E9417
:10071000C8040895F801A0E7B1E0EE0FFF1FAE0F87
:10072000BF1F0E94E304662777270E9412040895E2
:10073000882799270E94F2040E948E0408950E943F
:100740003901A3E0B0E00C94D903A0E30E94250195
:1007500088EC90E00197F1F708952A93AD85BE8566
:10076000EF85F88909950895E889F9893497E88B28
:10077000F98B0895AD85BE85EF85F88909950895B3
:10078000A889B98914960E94E304EE83FF83AE81A1
:10079000BF810895A889B98914960E94E304EA8765
:1007A000FB870895DE011C960E94AE040E94E304BC
:1007B0000895109639F080ED97E00197F1F7A8952C
:1007C0001197C9F70895552342F4503811F4E0FF0A
:1007D00004C03196691F791F6BF050E8572711F458
:1007E0005F933CC05F3F31F0660F000C57956795F3
:1007F000752F08955F9300200AF03CC035C050E883
:10080000192E1522880F991F9527550F879550E8A7
:10081000072E0522660F771F7527550F67950895D8
:10082000689401C0E894309760407040B1F00024B3
:1008300026F0772312F4009499D0172E7EE1112030
:1008400032F07A95EE0FFF1F661F111CF9CFEF2FC4
:10085000F62F612D5F93C1DF5F910895EE27FF278B
:10086000662777275F910895EFEFFFEF6FE77FEF40
:100870005F910895EFEFFFEF6FE77FE75F910895D6
:100880005F93BDDF703851F3903841F30124089431
:10089000791F23F41CF300203AF3ECCF0F921F933F
:1008A0002F933F934F93112722279927689FA001E9
:1008B0008F9F302D410D591F6B9F300D411D591FCA
:1008C0008E9F27D0BF9F25D06A9F23D0BE9F1DD06B
:1008D000AF9F1BD0AE9F110D291F391F491F591FF4
:1008E000E32FF42F652F522F4F913F912F911F919E
:1008F0000F9066232AF0550FEE1FFF1F661F02C0E0
:1009000073954BF260DF5F910895100D211D391F23
:1009100002C0200D311D491F591F089599239AF0D7
:10092000772342F0971748F029F4AE17BF078607E0
:1009300020F031F09894889408959894089408953C
:100940001894889408957723C2F7971798F3A9F716
:10095000EA17FB07680788F399F3ECCF0024AF0D83
:10096000B01D0895F195E195F0400895F0956095DA
:100970007095E195FF4F6F4F7F4F08956F2F660F72
:10098000660B762F08958B2F880F880B982F08956C
:10099000FA9FF02DEB9FF00DEA9FE02DF10D0895E9
:1009A0000024112490E1AA0FBB1F001C111C0E1A79
:1009B0001F0A18F40E0E1F1E01C0A1609A9599F728
:1009C000FD01D0010895ED91FC91119708950590D6
:1009D000F491E02D08957A936A93FA93EA93089537
:1009E000689401C0E89401D01EDF182E862F612D77
:1009F000192E972F712D1B2EBF2FF12D1A2EAE2FD2
:100A0000E12D08955A934A933A932A931A930A939D
:100A100008955D814C813B812A8119810881089567
:00000001FF
