:020000000C945E
:100002007F000C9400000C9400000C9400000C94EF
:1000120000000C9400000C9400000C9400000C945E
:1000220000000C9400000C9400000C9400000C944E
:1000320000000C9400000C9400000C9400000C943E
:1000420000000C9400000C9400000C9400000C942E
:10005200000000000100FFFF303132333435363703
:100062003839414243444546100020004000800098
:1000720053706565643A3F3F28302D353072290050
:1000820045450054696D653A3F3F28302D39397333
:100092002900573A3F3F28302D39396B67290054E0
:1000A200656D703A3F3F2832302D383043290000C9
:1000B20080C00600040054001000A8015A00070086
:1000C200B8016A0010006001720003007001820032
:1000D2000F00730185000300820182000D0085017B
:1000E200940003009201820010009501A100030018
:1000F200A50182000200C001B2000000F894EE27C0
:10010200ECBBF1E0FBBFEBBFE5BF8DE0A2E0BB279C
:10011200ED938A95E9F780E094E0A0E6ED930197EC
:10012200E9F7E4EBF0E085919591009761F0A591F4
:10013200B59105901590BF01F00105900D920197C0
:10014200E1F7FB01F0CFEFE5EDBFE4E0EEBFC0E683
:10015200D1E00C94E5000E945F0234E66624772425
:1001620000E0043060F5E02FA8EBB1E0F0E0EE0F24
:10017200FF1FAE0FBF1FEC91E8BB14E1AAE0B0E095
:100182000E945502B09910E0B19911E0B29912E0C3
:10019200B39913E0143179F0E02FEE0FEE0FE10F77
:1001A2003E2FE0EFE8BBB099FECFB199FECFB299F6
:1001B200FECFB399FECFE0EFE8BB0F5FD2CFE32FC4
:1001C2000E94640224960895E0E0EABBEBBBE0EFF4
:1001D200E7BBE0E0E8BBE4BBE5BBE1BBE2BBEBB7FE
:1001E200E068EBBFECE0E5BFE0E0E4BFE0E8EABFD7
:1001F200A0E1F1D005D027D045D063D0FBCFFFCF0F
:100202001A9314D1A0E6B1E0D5D014D110F01A306F
:1002120008F002C013D101C0F8CF0CD110F01A308F
:1002220008F002C016D101C0F8CF1AD1E82DF0E0D3
:10023200AE0FBF1FD39724F0A0E7B1E017D102C0E1
:100242001BD16AC0DECF1A93F1D0A3E7B1E0B2D0DE
:10025200F1D010F01A3008F002C0F0D001C0F8CF8F
:10026200E9D010F01A3008F002C0F3D001C0F8CF84
:10027200F7D007D124F0A2E8B1E0F8D002C0FCD058
:100282004BC0E2CF1A93D2D0A5E8B1E093D0D2D03E
:1002920010F01A3008F002C0D1D001C0F8CFCAD095
:1002A20010F01A3008F002C0D4D001C0F8CFD8D074
:1002B200E8D024F0A2E9B1E0D9D002C0DDD02CC050
:1002C200E2CF1A93B3D0A5E9B1E074D0B3D010F065
:1002D2001A3008F002C0B2D001C0F8CFABD010F093
:1002E2001A3008F002C0B5D001C0F8CFB9D0EE275D
:1002F200A80DBE1FA135E0E0BE073CF4D001E82DF9
:10030200F0E0AE0FBF1F549724F4A5EAB1E0AED0DF
:1003120002C0B2D001C0D6CF19910895AA93EBB30F
:10032200EF70AE2FE881E07FEA2BEBBB8DE08A9580
:10033200F1F7DA9A8DE08A95F1F7DA988DE08A95ED
:10034200F1F772C0AA93A881E9DFE881E295E88318
:10035200A881E4DF85E88A95F1F766C0AA93E8816F
:10036200F0E0E054FE4FE081A981AE0FEBDFB980EF
:10037200A88022960895A2E08BD0ACE0E3DFA1E052
:1003820087D0E0E0AE2EBE2E0895AA93A881AA30AF
:1003920011F0BD1448F0E0E0EA93A394AA2DDEDF49
:1003A200A881AA3009F440C0B394D89AA881CADFC0
:1003B200D8983AC0BA93AA931A93A981BA81ED91B7
:1003C200A983BA831E2FE03019F0A12FDEDFF5CF0B
:1003D200188123960895AA93EAB3E06FEABBD29AF2
:1003E200D09AD19ADA98D898D998D880E881E058EA
:1003F200E093C201E881E054E093C301A4E1B0E0DC
:100402000E9455024AD049D048D0A0E287DF88EC4A
:1004120090E00197F1F7A8E295DFA4E093DFA5E869
:1004220091DFA6E08FDFA7DF21960895E0E0EA934F
:10043200A0E094CF90DE1E2F10300895E0E0EA9302
:10044200A1E08CDF912EE12FF0E0E855FE4FA08174
:100452009CCF812EE12FF0E0E855FE4FA08195CF91
:10046200A92DEAE0EA9FF001DF010895A3DFA0EDE4
:10047200B7E00E9455027FCFA8EEB3E00E9455027A
:100482007ACFEE27A80DBE1FA436E0E0BE0708957E
:1004920059DFA3E0B0E00C945502A0E33FDF88EC03
:1004A20090E00197F1F70895109639F080ED97E00A
:1004B2000197F1F7A8951197C9F708953A932A93EE
:1004C2001A930A9308953B812A811981088108951C
:00000001FF
