:0C0000000C9434000C9400000C940000E0
:10000C000C9400000C9400000C9400000C94000064
:10001C000C9400000C9400000C9400000C94000054
:10002C000C9400000C9400000C9400000C94000044
:10003C000C9400000C9400000C9400000C94000034
:10004C000C9400000C94000001002D4E414E004910
:10005C004E4600000100600154000000F894EE27A9
:10006C00ECBBF1E0FBBFEBBFE5BF8DE0A2E0BB2733
:10007C00ED938A95E9F780E094E0A0E6ED93019783
:10008C00E9F7E0E6F0E085919591009761F0A59194
:10009C00B59105901590BF01F00105900D92019757
:1000AC00E1F7FB01F0CFEFE5EDBFE4E0EEBFC0E61A
:1000BC00D1E00C94610004D00E949100FFCFFFCFDF
:1000CC00E5E6E3BFE0E0E2BFEDE0ECBFE0E0EFBD72
:1000DC00EEBDEDBDECBDE7BDE6BDEBBDEABDE9BDDA
:1000EC00E8BDE2BDE5BDE4BDE3BDE9BFE5BFE4BFEE
:1000FC00EAB9E0E8E8B9E0E0E0BFE6B9EDB9E6BF9F
:10010C00EABBEBBBE8E0E7BBE0E0E8BBE4BBE5BB8C
:10011C00E1BBE2BB08951A930A9300E010E0E0E023
:10012C00EABB09B31127F801AAE5B0E00E94FF0170
:10013C00DF01EFEFF0E00E94170235968F01AFEF71
:10014C00B0E00E94FF01DF01E4E6F0E00E9417023C
:10015C000E94F2010E946101DF01CB010E94EE00BE
:10016C000E942A018F010CBF0991199108950E94D8
:10017C0039027B816A81F981E88177FB770F67FD12
:10018C007160972F9E5781F078F0983190F4AA27E0
:10019C00BB27882708948795B795A7959A95D1F78B
:1001AC00EA23FB23682305C0E8947727EE27FF2773
:1001BC0066276F77769508F4606877F9A991B991FD
:1001CC0089919991EA17FB076807790797FB0895BE
:1001DC000E9439020E942F020E94BD000E9434022C
:1001EC0019F40E942A0209C0E6F70E942A02A0E034
:1001FC00B0E080E89FE30E9494012496089550E8B3
:10020C00572711F45F93CAC05F3F31F0660F000CA3
:10021C0057956795752F08955F9300200AF0CAC013
:10022C00C3C050E8192E1522880F991F9527550F1A
:10023C00879550E8072E0522660F771F7527550FF7
:10024C0067950895689401C0E8945F93F2DF703865
:10025C0018F07F3F08F4A2C056E1571BAAF4519541
:10026C0058300EF4593030F0EFEFFFEF6FEF7FE7BF
:10027C0077F91AC077275523B9F0EE0FFF1F661FC9
:10028C00771F5A95D1F710C07727583028F0EF2FE9
:10029C00F62F672F5850F9CF552331F07695679587
:1002AC00F795E7955A95D1F700200AF48DD05F9118
:1002BC000895689401C0E894309760407040B1F0A4
:1002CC00002426F0772312F400947ED0172E7EE1C2
:1002DC00112032F07A95EE0FFF1F661F111CF9CF1B
:1002EC00EF2FF62F612D5F938ADF5F9108954F9367
:1002FC00AF01FD01DA01AB01BC01CA01402D012C9B
:10030C00142E4F910895EA0FFB1F681F0895E09576
:10031C00F0956095EF5FFF4F6F4F08955F9381DF0E
:10032C00903849F150E81526703821F1572F591B98
:10033C002BF112F4DCDFFACF583118F0AA27BB27C7
:10034C008827583028F0AB2FB82F88275850F9CF72
:10035C00552329F08695B795A7955A95D9F7502D21
:10036C00512572F0D0DF38F46795F795E7957395C2
:10037C0013F420C0BCDF43DF5F910895D8F7FBCFA7
:10038C00EA1BFB0B680B51F010F40094C0DF6623E2
:10039C0092F3EE0FFF1F661F7A95CBF7EE27FF2720
:1003AC00662777275F910895EFEFFFEF6FE77FEFF9
:1003BC005F910895EFEFFFEF6FE77FE75F9108958F
:1003CC00F195E195F0400895F09560957095E19563
:1003DC00FF4F6F4F7F4F08956F2F660F660B762F71
:1003EC000895FA9FF02DEB9FF00DEA9FE02DF10D93
:1003FC0008951CD0F6DF0EF4E3DF089500241124D9
:10040C0090E1AA0FBB1F001C111C0E1A1F0A18F436
:10041C000E0E1F1E01C0A1609A9599F7FD01D00127
:10042C00089504D0EBDF0EF4CBDF0895E894F7FFCA
:10043C0002C0C6DF6894B7FF06C0A095B0951196B0
:10044C0000F8039400FA0895E881F9816A817B81B0
:10045C000895A881B9818A819B810895E883F983E5
:10046C006A837B8308959A938A93BA93AA93089587
:00000001FF
