:060000000C9450000C946A
:1000060000000C947D000C9400000C9400000C94ED
:1000160000000C9400000C9400000C9400000C945A
:1000260082000C9400000C9400000C9400000C94C8
:1000360000000C9400000C9400000C9400000C943A
:1000460000000C9400000C9400000C940000102793
:10005600E80364000A00010000100001100001001E
:1000660030303A30303A30303A30300025643A2574
:10007600643A25643A25640030303A30303A3030FC
:100086003A30300080C00C00600166000C006C0144
:100096007E00020082018A000000F894EE27ECBB85
:1000A600F1E0FBBFEBBFE5BF8DE0A2E0BB27ED9320
:1000B6008A95E9F780E094E0A0E6ED930197E9F7E9
:1000C600ECE8F0E085919591009761F0A591B591E6
:1000D60005901590BF01F00105900D920197E1F78B
:1000E600FB01F0CFEFE5EDBFE4E0EEBFC0E6D1E007
:1000F6000C9494000E949E030E94230104C00E9457
:100106009E030E94BB00E991EFBFF991E991B99175
:10011600A9919991899179916991F990199009908C
:1001260018950FD0A0E10E9457037894E0E0E7BB52
:10013600A0E10E945703A0E6B1E00E944603FFCF6C
:10014600FFCFE0E0EABBEBBBE8E0E7BBE0E0E8BB03
:10015600E4BBE5BBE1BBE2BBE1E0E9BFEBB7E068CE
:10016600EBBFE4E0E5BFE0E0E4BFE0E8EABF089506
:100176006097E2EBE2BFA0917801B0917901A336D6
:10018600E0E0BE074CF1E0E0E0937801E09379010E
:10019600A0917A01B0917B01DB97CCF0E0937A01D4
:1001A600E0937B01A0917C01B0917D01DB973CF04F
:1001B600E0937C01E0937D01AEE7B1E002C0ACE7DD
:1001C600B1E0ED91FD913196FE93EE9304C0AAE75E
:1001D600B1E00E94AC0304C0A8E7B1E00E94AC0302
:1001E600FE01FA93EA93E2E7F0E0FA93EA93E091EC
:1001F6007E01F0917F010E94B203E0917C01F091B3
:100206007D010E94B203E0917A01F0917B010E9488
:10021600B203E0917801F09179010E94B20380E186
:100226000E94C40264960E942503DE010E944603D2
:1002360060960895E5E1E3BFE0E0E2BFECBF089514
:10024600B49902C0F7DF2EC0B5992CC0E0918001A9
:10025600F0918101309749F4E0E0E3BFE1E0F0E09E
:10026600E0938001F09381011DC0E0E0E3BF0E94AE
:100276002503ACE6B1E00E944603E0E0E093780196
:10028600E0937901E0937A01E0937B01E0937C01AE
:10029600E0937D01E0937E01E0937F01E09380018E
:1002A600E09381010895BA93AA931A930A93AA81B7
:1002B600BB8112960E940804309729F1AA81BB815E
:1002C60014960E9408048F01309761F00230E0E036
:1002D6001E0780F0F80131978F01AA81BB81149621
:1002E600ED93FC93AA81BB8112960E94AC033197D1
:1002F600AC81A083AA81BB810E940804FF2312F06F
:100306000E94AC0306C0AA81BB81EFEFFFEFED931D
:10031600FC931981088125960895BA93AA93269786
:100326000E94150410E0AC85BD85E0E0F0E0ED9399
:10033600FC93EA89FB893196EA8BFB8B3197E49132
:100346002E2FE03009F415C1E12FE03039F42532C3
:1003560011F411E002C00E94B7030AC1E130A9F40A
:10036600253219F40E94B70302C112E040E000E012
:100376002D3211F401E0FCC02B3211F44BE2F8C02F
:10038600203211F440E2F4C002C0E23039F450E009
:1003960013E0203311F40068EBC003C0E33009F02A
:1003A600E7C0203310F02A3308F007C0AAE05A9FAE
:1003B600502DE22FE0535E0FDBC0E22FE33649F407
:1003C6000E94BE03E889F989A481AA930E94C40306
:1003D600CEC0E33741F40E94BE030E94CA030E94C6
:1003E60085031E2F0AC0E03761F40E94BE030E94F7
:1003F600CA030E9491031E2F086002600F7730E047
:1004060034C0E43611F0E93611F4046002C0E53771
:1004160031F4E4E5F0E0EE83FF8315E00CC0E83547
:1004260011F4086003C0E83709F0A1C0EEE5F0E07A
:10043600EE83FF8314E002FF14C00E94BE030E94F5
:10044600D403AB85AA233AF4EA85FB850E94FF0311
:10045600EA87FB874DE2403011F01F5F01C00B7F3A
:1004660004C00E94BE030E94D40300FD11C01517EC
:1004760078F407FF08C002FF04C00B7F242F115039
:1004860001C020E301C020E20E94B7035150EFCF24
:10049600312F01FF17C03030A1F003FF06C0EE81F7
:1004A600FF812591EE83FF8305C0AE81BF812D912B
:1004B600AE83BF830E94B703503009F051503150CC
:1004C600EACF4BC020E3EE81FF810E940C04E8874F
:1004D600F987EE81FF813296EE83FF83E885F98501
:1004E600AA85BB85AE17BF0750F02F5FA885B985D3
:1004F600EA85FB85EA1BFB0BEA87FB87EFCF2A33EE
:1005060028F003FF02C0295F01C0295D04FD1AC05F
:10051600213320F4A885B985119709F409C053172A
:1005260010F000FF01C013C020E207FF0BC020E35C
:10053600006102FF07C00B7F4A930E94C40350303C
:1005460009F051500E94B703503009F05150315014
:10055600A885B985129708F0B5CF00FF08C05030BE
:1005660031F05150E0E2EA930E94C403F8CF10E064
:10057600E0CEAC85BD850E9408040E941C046496EA
:100586000895FF92F82E26970E9417040E94DC0316
:10059600309719F4EFEFFFEF23C0DE0116960E94A5
:1005A600FB038D010E94DC03EE83FF83E0E0E88716
:1005B600E987DE011A960E94FB030E940804FA935B
:1005C600EA931A930A93E6E5F1E0FA93EA93DE01D9
:1005D6001A96A3DE9F01AE81BF81E0E0EC93F9019C
:1005E6000E941E042A96FF900895AA93E5B3EF7021
:1005F600AE2FE881E07FEA2BE5BB8DE08A95F1F727
:10060600AA9A8DE08A95F1F7AA988DE08A95F1F776
:1006160077C0AA93A881E9DFE881E295E883A881FB
:10062600E4DF85E88A95F1F76BC0AA93E881F0E0EC
:10063600EE57FE4FE081A981AE0FEBDF598048806F
:1006460022960895A2E00E94E303ACE0E2DFA1E077
:100656000E94E303E0E04E2E5E2E0895AA93A88141
:10066600AA3011F0571448F0E0E0EA934394A42D21
:10067600DCDFA881AA3009F443C05394A89AA88164
:10068600C8DFA8983DC0BA93AA931A93A981BA81E4
:10069600ED91A983BA831E2FE03019F0A12FDEDF7A
:1006A600F5CF188123960895AA93E4B3E06FE4BBCF
:1006B600A29AA09AA19AAA98A898A9987880E8815F
:1006C600E058E0938401E881E054E0938501A4E1D9
:1006D600B0E00E94F1030E94E9030E94E9030E9430
:1006E600E903A0E282DF88EC90E00197F1F7A8E247
:1006F60090DFA4E08EDFA5E88CDFA6E08ADFA2DF2C
:1007060021960895BA93AA93A991B991EE27FF2746
:100716006D91662311F03196FBCF0895BA93AA9393
:10072600AA27BB27E991F9910590002011F01196AF
:10073600FBCFFD0108950A921A92FA926A937A9370
:100746008A939A93AA93BA93EA93FA93EFB7EA93A2
:100756000895ED91FD913196FE93EE9308950E94D2
:1007660003040E94100408952A93AD85BE85EF8583
:10077600F88909950895E889F9893497E88BF98B02
:100786000895AD85BE85EF85F88909950895A889F0
:10079600B98914960E940804EE83FF83AE81BF8157
:1007A6000895A889B98914960E940804EA87FB87E8
:1007B6000895DE011C960E94FB030E94080408951A
:1007C6000E940C03A3E0B0E00C94F103A0E30E94A6
:1007D600F80288EC90E00197F1F70895109639F049
:1007E60080ED97E00197F1F7A8951197C9F708955D
:1007F6000024AF0DB01D0895F195E195F0400895E0
:100806006F2F660F660B762F0895ED91FC91119769
:1008160008950590F491E02D08957A936A93FA93DA
:10082600EA9308955A934A933A932A931A930A930A
:1008360008955D814C813B812A8119810881089543
:00000001FF
