:040000000C943B0021
:100004000C9400000C9400000C9400000C9400006C
:100014000C9400000C9400000C9400000C946800F4
:100024000C9400000C9400000C9400000C9400004C
:100034000C9400000C9400000C9400000C9400003C
:100044000C9400000C9400000C9400000C9400002C
:1000540031555300302E31323555530080C00400E1
:100064006001540008006401580002006C01600043
:100074000000F894EE27ECBBF1E0FBBFEBBFE5BF5B
:100084008DE0A2E0BB27ED938A95E9F780E094E048
:10009400A0E6ED930197E9F7E2E6F0E0859195910A
:1000A400009761F0A591B59105901590BF01F001FD
:1000B40005900D920197E1F7FB01F0CFEFE5EDBF5D
:1000C400E4E0EEBFC0E6D1E00C947C00EA93EFB725
:1000D400EA93E9B3E83019F4EFEFEDBD06C0E9B3F4
:1000E400E13021F4EFEFEDBDE8EFECBDE991EFBFB6
:1000F400E99118950E948000FFCFFFCFE0E0EABBB2
:10010400EBBBE7BBE8BBE4BBE5BBE0E3E1BBE0E0A2
:10011400E2BBE0E5EFBDE1E0EEBDEFEFEDBDECBD30
:10012400E0E0E7BDE6BDEBBDEABDE9BDE8BDE4E066
:10013400E9BFA0E174D07894E0E0EABBE9B3E13030
:1001440039F4EFEFEDBDE8EFECBDA0E6B1E008C097
:10015400E9B3E83031F4EFEFEDBDECBDA4E6B1E076
:100164004DD00895AA93E5B3EF70AE2FE881E07FF8
:10017400EA2BE5BB8DE08A95F1F7AA9A8DE08A9582
:10018400F1F7AA988DE08A95F1F772C0AA93A88135
:10019400E9DFE881E295E883A881E4DF85E88A95D0
:1001A400F1F766C0AA93E881F0E0E459FE4FE081DC
:1001B400A981AE0FEBDF5980488022960895A2E012
:1001C40059D0ACE0E3DFA1E055D0E0E04E2E5E2E46
:1001D4000895AA93A881AA3011F0571448F0E0E0DA
:1001E400EA934394A42DDEDFA881AA3009F440C029
:1001F4005394A89AA881CADFA8983AC0BA93AA933C
:100204001A93A981BA81ED91A983BA831E2FE03094
:1002140019F0A12FDEDFF5CF188123960895AA9354
:10022400E4B3E06FE4BBA29AA09AA19AAA98A89812
:10023400A9987880E881E058E0936E01E881E05461
:10024400E0936F01A4E1B0E00E94480118D017D0F8
:1002540016D0A0E287DF88EC90E00197F1F7A8E2DE
:1002640095DFA4E093DFA5E891DFA6E08FDFA7DFA9
:10027400219608958BDFA3E0B0E00C944801A0E33D
:1002840071DF88EC90E00197F1F70895109639F04A
:1002940080ED97E00197F1F7A8951197C9F70895B4
:00000001FF
