:060000000C9437000C9483
:1000060000000C9400000C9400000C9400000C946A
:1000160000000C9400000C9400000C9400000C945A
:1000260000000C9400000C9400000C9400000C944A
:1000360000000C9400000C9400000C9400000C943A
:1000460000000C9400000C9400000C940000466123
:100056007A656C000D0A393832353538330080C080
:100066000200600164000000F894EE27ECBBF1E0AA
:10007600FBBFEBBFE5BF8DE0A2E0BB27ED938A9502
:10008600E9F780E094E0A0E6ED930197E9F7E6E66C
:10009600F0E085919591009761F0A591B591059055
:1000A6001590BF01F00105900D920197E1F7FB0154
:1000B600F0CFEFE5EDBFE4E0EEBFC0E6D1E00C9493
:1000C6006400609780E1A0E0B0E0E4E5F0E00E9423
:1000D6001C01E0E0EABBEBBBE7BBE8BBE4BBE5BB6E
:1000E600E1BBE2BBA0E164D0DE0151D0DE01169691
:1000F6004ED0FFCFFFCFAA93EBB3EF70AE2FE881C0
:10010600E07FEA2BEBBB8DE08A95F1F7DA9A8DE07A
:100116008A95F1F7DA988DE08A95F1F772C0AA937D
:10012600A881E9DFE881E295E883A881E4DF85E834
:100136008A95F1F766C0AA93E881F0E0E05AFE4F8F
:10014600E081A981AE0FEBDF5980488022960895A1
:10015600A2E059D0ACE0E3DFA1E055D0E0E04E2EBE
:100166005E2E0895AA93A881AA3011F0571448F07C
:10017600E0E0EA934394A42DDEDFA881AA3009F4D7
:1001860040C05394D89AA881CADFD8983AC0BA9387
:10019600AA931A93A981BA81ED91A983BA831E2FD6
:1001A600E03019F0A12FDEDFF5CF188123960895F0
:1001B600AA93EAB3E06FEABBD29AD09AD19ADA98B8
:1001C600D898D9987880E881E058E0936201E88170
:1001D600E054E0936301A4E1B0E00E94120118D05C
:1001E60017D016D0A0E287DF88EC90E00197F1F7F0
:1001F600A8E295DFA4E093DFA5E891DFA6E08FDF14
:10020600A7DF219608958BDFA3E0B0E00C941201DE
:10021600A0E371DF88EC90E00197F1F7089510965E
:1002260039F080ED97E00197F1F7A8951197C9F796
:100236000895AC0FBD1F05900D928A95E1F70895BC
:00000001FF
