:080000000C9440000C94000078
:100008000C9400000C9400000C9400000C94000068
:100018000C9400000C9400000C9400000C947401E3
:100028000C9400000C9400000C9400000C94000048
:100038000C94B0000C9400000C9400000C94000088
:100048000C9400000C9400000C9400001027E803A6
:1000580064000A000100001000011000010043685C
:10006800616E6E656C2025643A25644D760080C00B
:100078000200850176000000F894EE27ECBBF1E061
:10008800FBBFEBBFE5BF8DE0A2E0BB27ED938A95F0
:10009800E9F780E094E0A0E6ED930197E9F7E8E757
:1000A800F0E085919591009761F0A591B591059043
:1000B8001590BF01F00105900D920197E1F7FB0142
:1000C800F0CFEFE5EDBFE4E0EEBFC0E6D1E00C9481
:1000D8006D0015D01AD06ED077D0DCD0FDCFFFCF11
:1000E800AA93E881E064E7B98BE18A95F1F7369A3B
:1000F800349BFECF349AE4B1F5B10C940D040E9400
:100108002804E3EA0E943404089560970E94900648
:1001180020E030E02830E0E03E07D4F4A22FE0DF12
:100128008F010E943A04F9010E944304F8010E94D9
:1001380048040E945604DE0114960E94D003A8EEDB
:10014800B3E00E94C1040E94AF032F5F3F4FE2CF8C
:100158000E9497060C944C038A93AA93BA93EA9345
:10016800FA93EFB7EA93E0918201A0E6B1E0F0E0FC
:10017800EE0FFF1FAE0FBF1FE4B1F5B1ED93FC9377
:10018800A0918201AF5FA0938201A83018F0E0E04F
:10019800E0938201E0918201E05CE7B98BE18A9506
:1001A800F1F7369AE991EFBFF991E991B991A991DF
:1001B8008991189560971A930A930E942804EBEE88
:1001C8000E943404789462C060971A930A9300E0FE
:1001D80010E00830E0E01E070CF052C00E945B04FB
:1001E800FF93EF930E947204A3E3B3E383E79FE3D3
:1001F8000E94B405AF91BF910E948004A0F00E94B4
:100208005B04FF93EF930E947204A6E6B6E686E8C5
:100218009FE30E94B405AF91BF910E94800411F042
:1002280008F001C01DC0FE013296FA93EA93E6E693
:10023800F0E0FA93EA93F8010E9443040E945B04F9
:10024800662777270E9477060E945604DE011296D9
:100258000E94D003A8E5B2E00E94C1040E94AF0347
:10026800F801A0E7B1E0EE0FFF1FEA0FFB1FBF0187
:100278000E945B04DB01ED93FC930F5F1F4FA9CF36
:10028800E1E0F0E0E0938301F093840119810881B3
:10029800629608950E942804EBEEE6B9E0E0E0BF1C
:1002A800E5E6E3BFE0E0E2BFE0E8ECBFE0E0EFBD99
:1002B800EEBDEDBDECBDE7BDE6BDEBBDEABDE9BDFC
:1002C800E8BDE2BDE5BDE4BDE3BDE1E0E9BFE0E0D6
:1002D800E5BFE4BFEAB9A0E10E94E103789408957C
:1002E8000A921A92FA926A937A938A939A93AA93A1
:1002F800BA93EA93FA93EFB7EA9360970E9490064D
:10030800E0916001F0916101E0938001F093810137
:10031800AAE5B0E00E944406DF01E0E0F4E00E94B4
:100328005C068F010E9432060E943105A3E3B3E305
:1003380083E290E40E94B405A0E0B0E080EA90E493
:100348000E946405A0E0B0E080E09FE30E9464059D
:100358000E94FA049F012CBF0E943A04E0E0F0E0FA
:1003680060E070E00E947706E0918001F0918101E1
:100378000E9448040E945604E0E0EA93A0E00E942C
:10038800A203DE0114960E94D0030E949706649689
:10039800E991EFBFF991E991B991A9919991899161
:1003A80079916991F990199009901895BA93AA933F
:1003B8001A930A93AA81BB8112960E946F063097FE
:1003C80059F1AA81BB8114960E946F068F0130975C
:1003D80061F00230E0E01E0798F0F80131978F01D4
:1003E800AA81BB811496ED93FC93AA81BB811296D6
:1003F800ED91FD913196FE93EE933197AC81A083F8
:10040800AA81BB810E946F06FF232AF0ED91FD911E
:100418003196FE93EE9306C0AA81BB81EFEFFFEF02
:10042800ED93FC931981088125960895BA93AA93B0
:1004380026970E948E0610E0AC85BD85E0E0F0E0CE
:10044800ED93FC93EA89FB893196EA8BFB8B319714
:10045800E4912E2FE03009F415C1E12FE03039F492
:10046800253211F411E002C00E9487040AC1E1306C
:10047800A9F4253219F40E94870402C112E040E071
:1004880000E02D3211F401E0FCC02B3211F44BE2F4
:10049800F8C0203211F440E2F4C002C0E23039F46E
:1004A80050E013E0203311F40068EBC003C0E330E0
:1004B80009F0E7C0203310F02A3308F007C0AAE09B
:1004C8005A9F502DE22FE0535E0FDBC0E22FE33638
:1004D80049F40E948E04E889F989A481AA930E94AC
:1004E8009404CEC0E33741F40E948E040E949A041B
:1004F8000E940F041E2F0AC0E03761F40E948E0488
:100508000E949A040E941B041E2F086002600F7745
:1005180030E034C0E43611F0E93611F4046002C06A
:10052800E53731F4E4E5F0E0EE83FF8315E00CC035
:10053800E83511F4086003C0E83709F0A1C0EEE51A
:10054800F0E0EE83FF8314E002FF14C00E948E04E3
:100558000E94A404AB85AA233AF4EA85FB850E948D
:100568002606EA87FB874DE2403011F01F5F01C085
:100578000B7F04C00E948E040E94A40400FD11C0D9
:10058800151778F407FF08C002FF04C00B7F242F5B
:10059800115001C020E301C020E20E94870451509D
:1005A800EFCF312F01FF17C03030A1F003FF06C095
:1005B800EE81FF812591EE83FF8305C0AE81BF8167
:1005C8002D91AE83BF830E948704503009F05150AB
:1005D8003150EACF4BC020E3EE81FF810E947306C1
:1005E800E887F987EE81FF813296EE83FF83E885FD
:1005F800F985AA85BB85AE17BF0750F02F5FA88580
:10060800B985EA85FB85EA1BFB0BEA87FB87EFCFF9
:100618002A3328F003FF02C0295F01C0295D04FDC9
:100628001AC0213320F4A885B985119709F409C0A7
:10063800531710F000FF01C013C020E207FF0BC0E2
:1006480020E3006102FF07C00B7F4A930E949404D5
:10065800503009F051500E948704503009F0515031
:100668003150A885B985129708F0B5CF00FF08C0AA
:10067800503031F05150E0E2EA930E949404F8CFF0
:1006880010E0E0CEAC85BD850E946F060E949506FD
:1006980064960895FF92F82E26970E9490060E946D
:1006A800AC04309719F4EFEFFFEF23C0DE01169684
:1006B8000E9422068D010E94AC04EE83FF83E0E0D5
:1006C800E887E987DE011A960E9422060E946F06D3
:1006D800FA93EA931A930A93EAEDF1E0FA93EA930C
:1006E800DE011A96A3DE9F01AE81BF81E0E0EC93A4
:1006F800F9010E9497062A96FF900895AA93E5B3F8
:10070800EF70AE2FE881E07FEA2BE5BB8DE08A959C
:10071800F1F7AA9A8DE08A95F1F7AA988DE08A9563
:10072800F1F777C0AA93A881E9DFE881E295E88329
:10073800A881E4DF85E88A95F1F76BC0AA93E88180
:10074800F0E0EB57FE4FE081A981AE0FEBDF598057
:10075800488022960895A2E00E94B304ACE0E2DF4C
:10076800A1E00E94B304E0E04E2E5E2E0895AA9305
:10077800A881AA3011F0571448F0E0E0EA934394B6
:10078800A42DDCDFA881AA3009F443C05394A89AA9
:10079800A881C8DFA8983DC0BA93AA931A93A981E3
:1007A800BA81ED91A983BA831E2FE03019F0A12FE9
:1007B800DEDFF5CF188123960895AA93E4B3E06F9E
:1007C800E4BBA29AA09AA19AAA98A898A998788016
:1007D800E881E058E0938701E881E054E0938801DC
:1007E800A4E1B0E00E94C1040E94B9040E94B904C7
:1007F8000E94B904A0E282DF88EC90E00197F1F74B
:10080800A8E290DFA4E08EDFA5E88CDFA6E08ADF0F
:10081800A2DF21960895BA93AA93A991B991EE27D8
:10082800FF276D91662311F03196FBCF0895BA9397
:10083800AA93AA27BB27E991F9910590002011F006
:100848001196FBCFFD010895E0E0EABBEBBBE7BBE7
:10085800E8BBE4BBE5BBE1BBE2BBE0E4E7B9089574
:10086800E6B9E0E0E0BFA0E10C94E103FE013496B4
:10087800FA93EA93E6E6F0E0FA93EA9308950E9481
:1008880032060E9477060895A5E0B0E00E9444066B
:10089800DF01EFEFF3E00E945C06A8EEB3E00E94F0
:1008A8004406EDCF88E00E944E032C960895F80187
:1008B800A0E6B1E0EE0FFF1FAE0FBF1F0E946F064C
:1008C800A5E0B0E00E943C06DF01EFEFF3E00E94F4
:1008D8004906A8EEB3E00E943C060895F801A0E797
:1008E800B1E0EE0FFF1FAE0FBF1F0E946F06662715
:1008F80077270E9431050895882799270E947E0648
:100908000E94020608952A93AD85BE85EF85F88971
:1009180009950895E889F9893497E88BF98B089542
:10092800AD85BE85EF85F88909950895A889B989A7
:1009380014960E946F06EE83FF83AE81BF810895EF
:10094800A889B98914960E946F06EA87FB870895DB
:10095800DE011C960E9422060E946F0608950E94DE
:100968009603A3E0B0E00C94C104A0E30E948203C4
:1009780088EC90E00197F1F70895109639F080ED32
:1009880097E00197F1F7A8951197C9F708955523AE
:1009980042F4503811F4E0FF04C03196691F791F02
:1009A8006BF050E8572711F45F93C8C05F3F31F0F0
:1009B800660F000C57956795752F08955F93002073
:1009C8000AF0C8C0C1C050E8192E1522880F991F17
:1009D8009527550F879550E8072E0522660F771F34
:1009E8007527550F67950895689401C0E8945F933B
:1009F800F2DF703818F07F3F08F4A0C056E1571BAB
:100A0800AAF4519558300EF4593030F0EFEFFFEF5B
:100A18006FEF7FE777F91AC077275523B9F0EE0F04
:100A2800FF1F661F771F5A95D1F710C077275830D8
:100A380028F0EF2FF62F672F5850F9CF552331F0B4
:100A480076956795F795E7955A95D1F700200AF4BA
:100A5800FDD05F910895689401C0E8943097604094
:100A68007040B1F0002426F0772312F40094EED001
:100A7800172E7EE1112032F07A95EE0FFF1F661FC8
:100A8800111CF9CFEF2FF62F612D5F938ADF5F914D
:100A980008954F93AF01FD01DA01AB01BC01CA0112
:100AA800402D012C142E4F910895EA0FFB1F681F4B
:100AB8000895E095F0956095EF5FFF4F6F4F0895AB
:100AC8005F9381DF903839F1703821F1572F591B26
:100AD8002BF112F4DEDFFACF583118F0AA27BB2722
:100AE8008827583028F0AB2FB82F88275850F9CFCF
:100AF800552329F08695B795A7955A95D9F7502D7E
:100B0800512572F0D2DF38F46795F795E79573951C
:100B180013F420C0BEDF45DF5F910895D8F7FBCFFF
:100B2800EA1BFB0B680B51F010F40094C2DF66233C
:100B380092F3EE0FFF1F661F7A95CBF7EE27FF277C
:100B4800662777275F910895EFEFFFEF6FE77FEF55
:100B58005F910895EFEFFFEF6FE77FE75F910895EB
:100B68005F9331DF703851F3903841F301240894D2
:100B7800791F23F41CF300203AF3ECCF0F921F9354
:100B88002F933F934F93112722279927689FA001FE
:100B98008F9F302D410D591F6B9F300D411D591FDF
:100BA8008E9F27D0BF9F25D06A9F23D0BE9F1DD080
:100BB800AF9F1BD0AE9F110D291F391F491F591F09
:100BC800E32FF42F652F522F4F913F912F911F91B3
:100BD8000F9066232AF0550FEE1FFF1F661F02C0F5
:100BE80073954BF2D4DE5F910895100D211D391FC6
:100BF80002C0200D311D491F591F089599239AF0ED
:100C0800772342F0971748F029F4AE17BF078607F5
:100C180020F031F098948894089598940894089551
:100C28001894889408957723C2F7971798F3A9F72B
:100C3800EA17FB07680788F399F3ECCF0024AF0D98
:100C4800B01D0895F195E195F0400895F0956095EF
:100C58007095E195FF4F6F4F7F4F08956F2F660F87
:100C6800660B762F08958B2F880F880B982F089581
:100C7800FA9FF02DEB9FF00DEA9FE02DF10D0895FE
:100C88001CD0F6DF0EF4DEDF08950024112490E175
:100C9800AA0FBB1F001C111C0E1A1F0A18F40E0EF7
:100CA8001F1E01C0A1609A9599F7FD01D001089512
:100CB80004D0EBDF0EF4C6DF0895E894F7FF02C016
:100CC800C1DF6894B7FF06C0A095B095119600F8EB
:100CD800039400FA0895ED91FC91119708950590F9
:100CE800F491E02D08957A936A93FA93EA9308951C
:100CF800689401C0E89401D0B1DE182E862F612DCA
:100D0800192E972F712D1B2EBF2FF12D1A2EAE2FB6
:100D1800E12D08955A934A933A932A931A930A9382
:100D280008955D814C813B812A811981088108954C
:00000001FF
