:0C0000000C942A000C9400000C940000EA
:10000C000C9400000C9400000C9400000C94000064
:10001C000C9400000C9400000C9400000C94000054
:10002C000C9400000C9400000C9400000C94000044
:10003C000C9400000C9400000C9400000C94000034
:10004C000C9400000C940000F894EE27ECBBF1E04B
:10005C00FBBFEBBFE5BF8DE0A2E0BB27ED938A951C
:10006C00E9F780E094E0A0E6ED930197E9F7EFE57E
:10007C00EDBFE4E0EEBFC0E6D1E00C9461001A9352
:10008C000A93EFEFE7BB00E010E00430E0E01E075E
:10009C007CF4EFEFE8BBA4EFB1E00E946400E0E079
:1000AC00E8BBA4EFB1E00E9464000F5F1F4FEDCFDF
:1000BC00099119910895E3DFFFCFFFCF109639F026
:1000CC0080ED97E00197F1F7A8951197C9F708957E
:00000001FF
