:0E0000000C9440000C9400000C9400000C9432
:10000E0000000C9400000C9400000C9400000C9462
:10001E0000000C9400000C9400000C9400000C9452
:10002E0000000C9400000C9400000C9400000C9442
:10003E0000000C9400000C9400000C9400000C9432
:10004E0000000C9400001027E80364000A00010071
:10005E0000100001100001004368616E6E656C2097
:10006E0025643A25644D760080C00200600176005A
:10007E000000F894EE27ECBBF1E0FBBFEBBFE5BF51
:10008E008DE0A2E0BB27ED938A95E9F780E094E03E
:10009E00A0E6ED930197E9F7E8E7F0E085919591F9
:1000AE00009761F0A591B59105901590BF01F001F3
:1000BE0005900D920197E1F7FB01F0CFEFE5EDBF53
:1000CE00E4E0EEBFC0E6D1E00C946D0012D024D077
:1000DE00FECFFFCFAA93E881E064E7B98BE18A9562
:1000EE00F1F7369A349BFECF349AE4B1F5B10C9405
:1000FE000503E0E0EABBEBBBE7BBE8BBE4BBE5BB5B
:10010E00E1BBE2BBE0E4E7B9E3EAE6B9E0E0E0BF79
:10011E00A0E10E94D902089560970E94B30320E0E7
:10012E0030E02830E0E03E079CF5A22FD3DF8F01B0
:10013E00FE013496FA93EA93E6E6F0E0FA93EA9338
:10014E00F9010E946C030E94AC03F801A5E0B0E037
:10015E000E947903DF01EFEFF3E00E949103A8EE16
:10016E00B3E00E9479030E946C030E94AC0388E006
:10017E000E9446022C96DE0114960E94C802A8EE3A
:10018E00B3E00E945A030E94A7022F5F3F4FC9CFD0
:10019E000E94BA0372C1BA93AA931A930A93AA81C0
:1001AE00BB8112960E94A403309759F1AA81BB819C
:1001BE0014960E94A4038F01309761F00230E0E0A4
:1001CE001E0798F0F80131978F01AA81BB81149612
:1001DE00ED93FC93AA81BB811296ED91FD91319620
:1001EE00FE93EE933197AC81A083AA81BB810E94CE
:1001FE00A403FF232AF0ED91FD913196FE93EE9329
:10020E0006C0AA81BB81EFEFFFEFED93FC9319813E
:10021E00088125960895BA93AA9326970E94B10352
:10022E0010E0AC85BD85E0E0F0E0ED93FC93EA894B
:10023E00FB893196EA8BFB8B3197E4912E2FE030C0
:10024E0009F415C1E12FE03039F4253211F411E033
:10025E0002C00E9420030AC1E130A9F4253219F42C
:10026E000E94200302C112E040E000E02D3211F4A2
:10027E0001E0FCC02B3211F44BE2F8C0203211F435
:10028E0040E2F4C002C0E23039F450E013E0203313
:10029E0011F40068EBC003C0E33009F0E7C020336F
:1002AE0010F02A3308F007C0AAE05A9F502DE22F13
:1002BE00E0535E0FDBC0E22FE33649F40E942703C2
:1002CE00E889F989A481AA930E942D03CEC0E33751
:1002DE0041F40E9427030E9433030E9407031E2F3E
:1002EE000AC0E03761F40E9427030E9433030E9484
:1002FE0013031E2F086002600F7730E034C0E4361F
:10030E0011F0E93611F4046002C0E53731F4E4E58A
:10031E00F0E0EE83FF8315E00CC0E83511F40860C1
:10032E0003C0E83709F0A1C0EEE5F0E0EE83FF83ED
:10033E0014E002FF14C00E9427030E943D03AB8508
:10034E00AA233AF4EA85FB850E946803EA87FB87B5
:10035E004DE2403011F01F5F01C00B7F04C00E94C0
:10036E0027030E943D0300FD11C0151778F407FF07
:10037E0008C002FF04C00B7F242F115001C020E3E0
:10038E0001C020E20E9420035150EFCF312F01FF18
:10039E0017C03030A1F003FF06C0EE81FF8125911A
:1003AE00EE83FF8305C0AE81BF812D91AE83BF83E7
:1003BE000E942003503009F051503150EACF4BC00B
:1003CE0020E3EE81FF810E94A803E887F987EE8182
:1003DE00FF813296EE83FF83E885F985AA85BB857A
:1003EE00AE17BF0750F02F5FA885B985EA85FB854C
:1003FE00EA1BFB0BEA87FB87EFCF2A3328F003FFBC
:10040E0002C0295F01C0295D04FD1AC0213320F40A
:10041E00A885B985119709F409C0531710F000FF8C
:10042E0001C013C020E207FF0BC020E3006102FFF2
:10043E0007C00B7F4A930E942D03503009F0515094
:10044E000E942003503009F051503150A885B985D3
:10045E00129708F0B5CF00FF08C0503031F0515060
:10046E00E0E2EA930E942D03F8CF10E0E0CEAC85D7
:10047E00BD850E94A4030E94B80364960895FF925E
:10048E00F82E26970E94B3030E944503309719F465
:10049E00EFEFFFEF23C0DE0116960E9464038D017D
:1004AE000E944503EE83FF83E0E0E887E987DE01E3
:1004BE001A960E9464030E94A403FA93EA931A9375
:1004CE000A93E2EDF0E0FA93EA93DE011A96A3DEC8
:1004DE009F01AE81BF81E0E0EC93F9010E94BA0367
:1004EE002A96FF900895AA93E5B3EF70AE2FE88198
:1004FE00E07FEA2BE5BB8DE08A95F1F7AA9A8DE0B5
:10050E008A95F1F7AA988DE08A95F1F777C0AA93AC
:10051E00A881E9DFE881E295E883A881E4DF85E838
:10052E008A95F1F76BC0AA93E881F0E0E05AFE4F8E
:10053E00E081A981AE0FEBDF5980488022960895A5
:10054E00A2E00E944C03ACE0E2DFA1E00E944C036B
:10055E00E0E04E2E5E2E0895AA93A881AA3011F0E7
:10056E00571448F0E0E0EA934394A42DDCDFA88111
:10057E00AA3009F443C05394A89AA881C8DFA8985A
:10058E003DC0BA93AA931A93A981BA81ED91A9831A
:10059E00BA831E2FE03019F0A12FDEDFF5CF1881C0
:1005AE0023960895AA93E4B3E06FE4BBA29AA09AAF
:1005BE00A19AAA98A898A9987880E881E058E09323
:1005CE006201E881E054E0936301A4E1B0E00E948F
:1005DE005A030E9452030E9452030E945203A0E249
:1005EE0082DF88EC90E00197F1F7A8E290DFA4E0BB
:1005FE008EDFA5E88CDFA6E08ADFA2DF21960895C4
:10060E00BA93AA93A991B991EE27FF276D9166230C
:10061E0011F03196FBCF0895BA93AA93AA27BB2760
:10062E00E991F9910590002011F01196FBCFFD0193
:10063E0008952A93AD85BE85EF85F88909950895AD
:10064E00E889F9893497E88BF98B0895AD85BE85D5
:10065E00EF85F88909950895A889B98914960E949D
:10066E00A403EE83FF83AE81BF810895A889B98963
:10067E0014960E94A403EA87FB870895DE011C9658
:10068E000E9464030E94A40308950E948E02A3E0B8
:10069E00B0E00C945A03A0E30E947A0288EC90E03A
:1006AE000197F1F70895109639F080ED97E00197D4
:1006BE00F1F7A8951197C9F708950024AF0DB01D55
:1006CE000895F195E195F04008956F2F660F660B32
:1006DE00762F0895FA9FF02DEB9FF00DEA9FE02DF7
:1006EE00F10D08951CD0F6DF0EF4EBDF0895002413
:1006FE00112490E1AA0FBB1F001C111C0E1A1F0A19
:10070E0018F40E0E1F1E01C0A1609A9599F7FD01F7
:10071E00D001089504D0EBDF0EF4D3DF0895E894F2
:10072E00F7FF02C0CEDF6894B7FF06C0A095B09564
:10073E00119600F8039400FA0895ED91FC9111972B
:10074E0008950590F491E02D08957A936A93FA93A3
:10075E00EA9308955A934A933A932A931A930A93D3
:10076E0008955D814C813B812A811981088108950C
:00000001FF
