:040000000C9431012A
:100004000C9400000C9400000C9400000C9400006C
:100014000C9400000C9400000C9400000C9400005C
:100024000C9400000C9400000C9400000C9400004C
:100034000C9400000C9400000C9400000C9400003C
:100044000C9400000C9400000C9400000C9400002C
:1000540005072060000000000000005F00000007AA
:10006400000700147F147F14242A7F2A1223130804
:10007400646236495522500005030000001C2241E9
:10008400000041221C00082A1C2A0808083E08080F
:100094000050300000080808080800303000002034
:1000A400100804023E5149453E00427F400042612F
:1000B4005149462141454B311814127F10274545BB
:1000C40045393C4A494930017109050336494949D2
:1000D40036064949291E003636000000563600000F
:1000E40000081422411414141414412214080002A8
:1000F40001510906324979413E7E1111117E7F4931
:100104004949363E414141227F4141221C7F4949B0
:1001140049417F090901013E414151327F080808E4
:100124007F00417F41002040413F017F081422416C
:100134007F404040407F0204027F7F0408107F3EDE
:100144004141413E7F090909063E4151215E7F0933
:10015400192946464949493101017F01013F40407F
:10016400403F1F2040201F7F2018207F6314081465
:10017400630304780403615149454300007F41410E
:10018400020408102041417F0000040201020440DF
:1001940040404040000102040020545454787F48F9
:1001A4004444383844444420384444487F38545400
:1001B4005418087E090102081454543C7F080404AE
:1001C4007800447D40002040443D00007F102844D6
:1001D40000417F40007C041804787C0804047838CB
:1001E400444444387C14141408081414187C7C08FF
:1001F4000404084854545420043F4440203C4040E4
:10020400207C1C2040201C3C4030403C44281028CA
:10021400440C5050503C4464544C44000836410053
:1002240000007F0000004136080002010204027F42
:100234004141417F000103070F1F3F7FFF00000082
:100244000000000001002D4E414E00494E460000C2
:100254000600080042020100800148020000F894F0
:10026400EE27ECBBF1E0FBBFEBBFE5BF8DE0A2E006
:10027400BB27ED938A95E9F780E094E0A0E6ED933F
:100284000197E9F7E4E5F2E085919591009761F033
:10029400A591B59105901590BF01F00105900D92BF
:1002A4000197E1F7FB01F0CFEFE5EDBFE4E0EEBF2E
:1002B400C0E6D1E00C945E012697EFEFEABBE0E0E4
:1002C400EBBBEFEFE7BBE0E0E8BBEFEFE4BBE0E064
:1002D400E5BBEFEFE1BBE0E0E2BBE4E5F0E0E8839F
:1002E400F983E0E0EA83EB83EC83ED83DE01F9D06C
:1002F400789406D0A0E9B1E00E946A08FACFFFCF53
:10030400F40131964F01ECE3F0E0E815F90529F426
:10031400F50131965F0188249924ECE3F0E0EA15B5
:10032400FB0529F4F60131966F01AA24BB24ECE005
:10033400F0E0EC15FD0511F4CC24DD2433D10E944A
:100344005E07AEE10E946506E3E0E0936801E5E044
:10035400E09369010E945E07A2E00E9465060E9484
:1003640063070E946A070E9441070E947B072F01CE
:100374000E946A070E94B5060E947B073F010E9403
:100384005E07E42DE15C0E9484070E948A070E94B4
:1003940041070E949B072F010E948A070E94B5060D
:1003A4000E949B073F010E945E07E42DE45C0E94CB
:1003B40084070E94A4070E94B5060E94B5073F0166
:1003C4000E94A4070E9441070E94B5072F010E94C2
:1003D4005E07E42DE45C0E94840708950000909A6F
:1003E400000008959098959A949A08951A93F6DFC8
:1003F40013B39098E12F19910895AA931A93E0E00A
:10040400E4BB919A9298A981E2E0EA1B1E2F10FFA7
:1004140002C0959A01C0959811FF02C0949A01C038
:100424009498E4DFE078E9F7188174C1AA93A9816C
:10043400E4DF0E94BE076EC1E0917E01EA93E09181
:100444007D01EF73E064AE2FF1DFE0917E01EA936A
:10045400E0917F01E86BAE2FE9DF0895AA93E9816B
:10046400E0937D01E295EF70E695E695E0937E01D9
:10047400E881E0937F01E0DF4DC1A0917D01AF5F92
:10048400A0937D01A03818F0E0E0E0937D01E091B5
:100494007D01EF7331F4E0917D01EA93A0917F0136
:1004A400DDDF0895AA93A0917E01A7DF929A0E94AE
:1004B400BE0721960895A0917E019FDFE0E0E4BB92
:1004C400919A929A93DF0895AA93E981EA93E98134
:1004D400E695E695E695AE2FC1DFEDDFADDFEBDF08
:1004E40019C1BA93AA931A93889A899A8A9A8B9A69
:1004F400939A8D9A8C9A76DF9398A4E6B0E00E9442
:100504006A08939A10E0123040F41A93AFE38EDF36
:100514001A931395A0EC8ADFF6CFE1E0E093600133
:10052400E0E0E0936101E981FA813097A9F0A981C3
:10053400BA810E94730AE0936401F09365011296F4
:100544000E94730AE0937901F0937A01A981BA8138
:1005540014960E94730A0AC0E0E0F0E0E09364019C
:10056400F0936501E0937901F0937A01E0937B01C4
:10057400F0937C01E1E0E0936601E09367010E945F
:100584006307E1E0E0937001E1E7F1E0FA93EA93B5
:10059400EFEFEA93A8E0B0E00E944E0703D0E1E059
:1005A40018819AC30E949E0A00E030E0E091610144
:1005B400E03009F00FEF383078F4E0E0EA93A32F4D
:1005C4003F5F4CDF10E0A12F1F5FA03820F4A02F65
:1005D40069DF53DFF8CFEFCFE0E0EA93A0E03EDF3E
:1005E400E0E0EA93A0E08BD00E94A50A0C944C07AB
:1005F400AA931A930A93AC81A03818F4AB81A0345F
:1006040020F0198108810C945C07EC81EA93AC8199
:100614005BDF1E2F11DFEB81E770A1E00E94290A46
:100624000E2FEA81E03011F0102B03C0E02FE0958B
:100634001E23A12F37DF198108810C945C07AA932C
:10064400A981A03818F4A881A03410F0E0E062C0B9
:10065400E981EA93A98138DF1E2EE881E770A1E0E1
:100664000E94290AE12111F0E1E001C0E0E052C05A
:100674000E94C7071CF0E0E0F0E04CC0A881B981FB
:10068400A038E0E0BE071CF0EFE7F0E043C0E881EB
:10069400F98140C00E94C7071CF0E0E0F0E03AC0D6
:1006A400A881B981A034E0E0BE071CF0EFE3F0E0DC
:1006B40031C0E881F9812EC0AA93E981EA93E981E6
:1006C400EA93A091600194DF25C0AA93EA81EA939A
:1006D400EA81EA93E0916901AA81EA2319F0E091A1
:1006E400600102C0E0916101AE2F82DFE881EE0F6C
:1006F400E883E03011F4E1E0E883E881EDC2AA93F5
:10070400A981BB27B5DFE0936201A881BB27C2DFC3
:10071400E093630122960895AA932B970E949C0A62
:10072400AC89BB27A5DFEC8BAA89BB27A1DFEA8BA9
:10073400AB89BB27AFDFEB8BA989BB27ABDFE98B89
:10074400EA89E0936201E989E0936301E1E0E887E3
:10075400E989AB89EA1771F51C89AA891A1731F45A
:100764001A93EC89EA93A1E0B0DFC8C0AA891A17EA
:1007740030F4EA89E11B0E2F41E050E006C0AA895B
:10078400E12FEA1B0E2F4FEF5FEF3B89E0E0EE8392
:100794000E94CE0738F41A933A933395AA8595DFCD
:1007A400EF83F6CFEF81E887140FE02F0150E0309C
:1007B40061F7A4C0EA89AC89EA1739F53B89A989AC
:1007C4003A1730F4E989E31B2E2FE1E0F0E006C08C
:1007D400A989E32FEA1B2E2FEFEFFFEFED87FE87AA
:1007E4001C89E0E0EE830E94CE0730F41A9313953F
:1007F4000E94D607EF83F7CFEF81E887ED853E0FA0
:10080400E22F2150E03061F779C0E0E0EE830E94EE
:10081400CE0708F073C01C893B89E1E02E2F0E2F10
:10082400AA89BB27EC89F0E0AE1BBF0BAD015523B1
:100834002AF40FEFFA010E941D0AAF01FA01EE0F2C
:10084400FF1FEF87F88BA989BB27EB89F0E0AE1B6C
:10085400BF0BAD87BE87AE85AA233AF42FEFED8593
:10086400FE850E941D0AED87FE87ED85FE85EE0F4D
:10087400FF1FEB87FC871A933A93A1E026DFE887F2
:10088400E0E0E987EA87AD85BE854A175B07BCF0DF
:10089400100FEB85FC850E94DA07A985BA854A17F3
:1008A4005B072CF4320FAF85B8890E94E1071A93D5
:1008B4000E94D607E887EA89E11751F718C0320F7A
:1008C400EF85F8890E94DA07ED85FE85A985BA854A
:1008D400EA17FB072CF4100FAB85BC850E94E107D7
:1008E4001A930E94D607E887E989E31741F7EB8951
:1008F400EF5FEB8BE989EF5FE98B89CF0E94A30A55
:1009040065960895BA93AA9323970E949C0AED854D
:10091400E887E0916801EF83E0916001EE83AA89A2
:10092400BB27EF850E94E807E8890E94EF07E88962
:100934000E94F60771F0E885E078F1F4AD85BE8594
:10094400EAE5F0E00E94FE071CF00E9407080CF4A0
:1009540013C0332312F00E940C08AF81A23020F0A0
:100964002230E0E03E070CF407C00E94100821F496
:100974000A93A22FA150A0DEE885E878E83891F028
:10098400E885E078C9F4AD85BE85A25FBE4F0E94BC
:1009940019083CF0AD85BE85A25FBE4F0E941E08BB
:1009A4000CF40AC00E94230838F00E942A0821F49B
:1009B4000A93A42FAF5F80DEAA89BB27EF85F0E0FE
:1009C400AE1BBF0B8D0111230AF445C0E885E27804
:1009D400E23891F0E885E07811F5AD85BE85A65A38
:1009E400BF4F0E9419083CF0AD85BE85A65ABF4F83
:1009F4000E941E080CF413C0332312F00E940C084A
:100A0400AF81A23020F02230E0E03E070CF407C0B2
:100A14000E94100821F40A93A22FA1504DDEE8850C
:100A2400E478E43871F0E885E078A9F4AD85BE8512
:100A3400EEE0F1E00E94FE071CF00E9407080CF4AF
:100A44000AC00E94230838F00E942A0821F40A935D
:100A5400A42FAF5F31DEAA89BB27E8890E94E8078B
:100A6400EF850E94EF07EF850E94F60781F0E88585
:100A7400E078F1F4EB85FC85AD85BE85AE17BF0744
:100A84002CF0E985FA85EA17FB070CF411C033232F
:100A94007AF00E940C08AF81A23050F0E02FEE5F94
:100AA4000E94330829F4E02FEF5FEA93A22F04DEBB
:100AB400E885E878E83871F0E885E078C1F4AD8538
:100AC400BE85E8E6F1E00E94FE071CF00E940708DC
:100AD4000CF40DC00E94230850F0E02FEE5F0E943A
:100AE4003B0829F4E02FEF5FEA93A42FE5DDAA8900
:100AF400BB27E889F0E0AE1BBF0B8D0111230AF47C
:100B040050C0E885E278E23871F0E885E07809F5CC
:100B1400AD85BE85E4EBF0E00E94FE071CF00E9468
:100B240007080CF416C03323A2F00E940C08AF810E
:100B3400A23020F00230E0E01E070CF40AC0E02FDF
:100B4400E2500E94330829F4E02FE150EA93A22FE7
:100B5400B3DDE885E478E43891F0E885E07809F5D8
:100B6400AD85BE85AC54BF4F0E9419083CF0AD85DD
:100B7400BE85AC54BF4F0E941E080CF412C00E94E4
:100B8400230820F00230E0E01E070CF40AC0E02F36
:100B9400E2500E943B0829F4E02FE150EA93A42F8D
:100BA4008BDD0E94A30A63960895AA930E949E0A6D
:100BB400AF81BB27ED81F0E0AE1BBF0B59DD1E2FCB
:100BC400AF81BB27ED81F0E0AE0FBF1F51DD0E2FCB
:100BD400AE81BB27EC81F0E0AE1BBF0B5BDD3E2F8B
:100BE400AE81BB27EC81F0E0AE0FBF1F53DD2E2F8B
:100BF4001A933A930A93A32F8FDD1A932A930A9395
:100C0400A22F8ADD0E94A50A28960895AA930E941D
:100C14009C0AA985A03818F4A885A03408F04FC010
:100C240050916801E52F5150E03009F448C0EF813C
:100C3400E03009F444C0EF81E150EF83EF5F0E2F01
:100C4400F0E0A5E0B0E0AE1BBF0BFD010E94310A4D
:100C54000E94360A9F0110E0AE81A03459F40E942C
:100C640043081A93A02FA1DF0E9443080A93A12FDF
:100C74009CDF0FC00E9443081A930A93EA85F0E0B0
:100C8400FA93EA93E0E0F0E0FA93EA93A0E0B0E0AC
:100C940039DE1F5F33231AF4E12FF0E008C001505E
:100CA400A12FBB27E02FF0E0AE1BBF0BFD01EE0F21
:100CB400FF1F31962E0F3F1F011770F6B3CF0E940E
:100CC400A30A2A960895AA93EA81EA93EA81EA9309
:100CD400EA81EA93AFE89ADF239608950E94860A90
:100CE4007B816A81F981E88177FB770F67FD716009
:100CF400972F9E5781F078F0983190F4AA27BB275C
:100D0400882708948795B795A7959A95D1F7EA23EC
:100D1400FB23682305C0E8947727EE27FF2766277F
:100D24006F77769508F4606877F9A991B9918991FC
:100D34009991EA17FB076807790797FB08950E94C2
:100D440048080E9470060E94810A19F40E94770ADA
:100D5400A1C0E6F70E94770AA0E0B0E080E89FE334
:100D64000E94130997C00E94860A24971A9310E0E0
:100D74000E944D08E3E8F9EF62E27EE30E946A090B
:100D84000E945208DCDF0E944D080E948B0A0E94D8
:100D940013090E945208E0E0F0E060E07FE30E9463
:100DA400FD0909F008F409C00E945708A0E0B0E06A
:100DB40080E09FE30E945C0811E00E944D08E0E09F
:100DC400F0E060E87EE30E94FD0909F008F408C041
:100DD4000E944D08E0E0F0E060E07FE30E945C08E0
:100DE400103041F00E9457080E947408ED83FE837E
:100DF4006F8378870E9457080E944D080E946A09F1
:100E0400E983FA836B837C83A1EBB4EC86E292E4FE
:100E14000E946A09DF01CB01EDE1F5EE6DE272E4B7
:100E24000E948B0A0E9413090E946308ACE4B3E594
:100E340084E091E40E941A090E944D080E946A0904
:100E44007F936F93FF93EF93E981FA816B817C81A8
:100E5400A1E1BDEE8EED9FE30E941A090E94630892
:100E6400AEE5BBE788EA9FE30E941A09AF91BF9100
:100E74008F919F910E94B8091881299608950E9424
:100E84004808EBEDFFE069EC7FE30E941309DF0102
:100E9400CB0169DF24960895BA93AA93B981A881F6
:100EA400109631F0FC81EB816A8161931197E9F727
:100EB400EB81FC8125960895ECE3EA93EFE1EA9354
:100EC4000895E1E0E0936801EFEFE093690108958C
:100ED400F401ACE3B0E00E94480ADF01EAE0F0E08C
:100EE4000E94600A0E943B0A0E94E008DF01CB01D5
:100EF4000895A0E0B0E088EC91E40E946A090E94A1
:100F0400A9080895EA93EFE1E619AE2F0C948E0335
:100F1400F501ACE3B0E00E94480ADF01EAE0F0E04A
:100F24000E94600A0E943B0A0E94E008DF01CB0194
:100F34000895A0E0B0E080EA91E40E946A090E946A
:100F4400A9080895F601ACE3B0E00E94480ADF0165
:100F5400EAE0F0E00E94600A0E943B0A0E94E00876
:100F6400DF01CB010895A0E0B0E080E791E40E94A6
:100F74006A090E94A90808959198EFEFE4BBE881FB
:100F8400E5BB0E94F0010C94F401BA93AA93A881E2
:100F9400B9810E94980A0895AE81AF5FAE83A150D3
:100FA400E0916801AE1708953A93AA850C946703FB
:100FB400A985BA85EA0FFB1FE987FA870895E985B1
:100FC400FA85EA1BFB0BE987FA870895F0E0EA0F3C
:100FD400FB1F8F01A989BB270895F0E0AE1BBF0B4F
:100FE4009D01A989BB270895F0E0EA0FFB1FAF011B
:100FF400E885E178E1380895EA1BFB0B0F01DF0176
:10100400EB85FC85AE17BF070895E985FA85E015E1
:10101400F10508950A93A22F0C945E030A93A22F5C
:10102400A2500E942103AE2FEE81EA170895EB85AA
:10103400FC85AE17BF070895E985FA85EA17FB0713
:1010440008950A93A42F0E945E03AF81A2300895ED
:101054000A93A42FAE5F0E942103AE2FEE81EA17FC
:101064000895EA93A22F0E942103AE2FEE81EA177E
:101074000895EA93A42F0E942103AE2FEE81EA176C
:101084000895E985EA93E985EA9308950E94860A1A
:101094000E947C0A0895AD81BE818F819885089550
:1010A400ED83FE836F837887F6CFED81FE816F81B8
:1010B400788508950E941309ED83FE836F837887F2
:1010C4000895A981BA818B819C810E946A0908953F
:1010D400109639F080ED97E00197F1F7A8951197F4
:1010E400C9F7089530976040704009F0705808952A
:1010F400552342F4503811F4E0FF04C03196691FBF
:10110400791F6BF050E8572711F45F93CFC05F3F0E
:1011140031F0660F000C57956795752F08955F930E
:1011240000200AF0CFC0C8C050E8192E1522880F3D
:10113400991F9527550F879550E8072E0522660FAE
:10114400771F7527550F67950895689401C0E89433
:101154005F93F2DF703818F07F3F08F4A7C056E1C0
:10116400571BAAF4519558300EF4593030F0EFEF74
:10117400FFEF6FEF7FE777F91AC077275523B9F0B0
:10118400EE0FFF1F661F771F5A95D1F710C0772700
:10119400583028F0EF2FF62F672F5850F9CF5523EA
:1011A40031F076956795F795E7955A95D1F7002034
:1011B4000AF445D15F910895689401C0E89430978A
:1011C40060407040B1F0002426F0772312F40094BC
:1011D40036D1172E7EE1112032F07A95EE0FFF1FE3
:1011E400661F111CF9CFEF2FF62F612D5F938ADF55
:1011F4005F9108954F93AF01FD01DA01AB01BC018A
:10120400CA01402D012C142E4F910895EA0FFB1FA3
:10121400681F0895E095F0956095EF5FFF4F6F4F5D
:1012240008955F9381DF903871F150E8152604C06A
:101234005F937ADF903839F1703821F1572F591BB9
:101244002BF112F4D7DFFACF583118F0AA27BB27B5
:101254008827583028F0AB2FB82F88275850F9CF5B
:10126400552329F08695B795A7955A95D9F7502D0A
:10127400512572F0CBDF38F46795F795E7957395B0
:1012840013F420C0B7DF3EDF5F910895D8F7FBCF9A
:10129400EA1BFB0B680B51F010F40094BBDF6623D0
:1012A40092F3EE0FFF1F661F7A95CBF7EE27FF2709
:1012B400662777275F910895EFEFFFEF6FE77FEFE2
:1012C4005F910895EFEFFFEF6FE77FE75F91089578
:1012D4005F932ADF703851F3903841F30124089466
:1012E400791F23F41CF300203AF3ECCF0F921F93E1
:1012F4002F933F934F93112722279927689FA0018B
:101304008F9F302D410D591F6B9F300D411D591F6B
:101314008E9F27D0BF9F25D06A9F23D0BE9F1DD00C
:10132400AF9F1BD0AE9F110D291F391F491F591F95
:10133400E32FF42F652F522F4F913F912F911F913F
:101344000F9066232AF0550FEE1FFF1F661F02C081
:1013540073954BF2CDDE5F910895100D211D391F59
:1013640002C0200D311D491F591F08955F93DCDE13
:10137400703821F411200AF49FCFA4CF903809F4D7
:1013840095CF01240894970B1BF4D4F30020F3CFDA
:10139400792F1F932F933F934F93112411272227C3
:1013A40033274427552790E2AE17BF078607410726
:1013B40030F0AE1BBF0B860B410B089401C0889420
:1013C400551F221F331F111CAA1FBB1F881F441F38
:1013D4009A9551F7F901612D4F913F912F911F91EA
:1013E400662332F0550FEE1FFF1F661F7A9543F2F6
:1013F4007FDE5F91089599239AF0772342F097173F
:1014040048F029F4AE17BF07860720F031F098940E
:101414008894089598940894089518948894089545
:101424007723C2F7971798F3A9F7EA17FB0768071A
:1014340088F399F3ECCFF195E195F0400895F09598
:1014440060957095E195FF4F6F4F7F4F0895EE23A0
:101454000E2EEA2F19F0EE0F0A94E9F70895EE0F15
:10146400FF1FEE0FFF1F0895F595E795F595E79596
:1014740008956F2F660F660B762F0895FA9FF02D4F
:10148400EB9FF00DEA9FE02DF10D08951CD0F6DFDF
:101494000EF4D1DF08950024112490E1AA0FBB1F9C
:1014A400001C111C0E1A1F0A18F40E0E1F1E01C078
:1014B400A1609A9599F7FD01D001089504D0EBDF5E
:1014C4000EF4B9DF0895E894F7FF02C0B4DF68941E
:1014D400B7FF06C0A095B095119600F8039400FAE2
:1014E4000895ED91FC9111970895E881F9816A813D
:1014F4007B810895A881B9818A819B810895E883BD
:10150400F9836A837B8308959A938A93BA93AA93FF
:101514000895182E862F612D192E972F712D1B2EAD
:10152400BF2FF12D1A2EAE2FE12D089500240A1697
:101534000B0608955A934A933A932A931A930A935B
:1015440008955D814C813B812A8119810881089528
:00000001FF
