:060000000C9463000C9457
:1000060000000C9400000C9400000C9495000C94D5
:1000160000000C9400000C9400000C9400000C945A
:1000260090000C9400000C9400000C9400000C94BA
:1000360000000C9400000C9400000C9400000C943A
:1000460000000C9400000C9400000C940000102793
:10005600E80364000A00010000100001100001001E
:1000660001000000010000000A00010001002564F3
:100076000052504D3A00310025640072706D000048
:1000860080C001002D4E414E00494E4600000A0038
:100096000400660001007B01700001007F01720010
:1000A600050060017700020065017C00040067011D
:1000B600810002009201860001009901880000007B
:1000C600F894EE27ECBBF1E0FBBFEBBFE5BF8DE09C
:1000D600A2E0BB27ED938A95E9F780E094E0A0E6DD
:1000E600ED930197E9F7E4E9F0E0859195910097A2
:1000F60061F0A591B59105901590BF01F0010590AD
:100106000D920197E1F7FB01F0CFEFE5EDBFE4E0DB
:10011600EEBFC0E6D1E00C94A9000E9455040E94EF
:10012600C40006C00E945504E2EBE4BD0E94D8005C
:10013600E991EFBFF991E991B991A99199918991C5
:1001460079916991F9901990099018950E947C010E
:1001560005D0A0E10E941D02FFCFFFCF1A930A939C
:1001660000E010E0E0E0EABB09B31127F8010E94C5
:1001760063048F010E946E048F010CBF09911991CF
:100186000895CC24DD24E0E0EABBC9B2DD24F60103
:100196000E9463046F010E946E046F01CCBEE1E011
:1001A6000E948204A5E6B1E0A2C00E948604A5369C
:1001B600E0E0BE0734F5A0917F01B0918001119770
:1001C600F1F40E948B04119711F40E9490040E948E
:1001D6008B04129711F40E949C040E948B041397BF
:1001E60011F40E94A8040E948B04149711F40E9433
:1001F600B4040E948B04159714F00E94C0040E9458
:10020600C7040E948604A436E0E0BE0759F4C498E9
:10021600C598C698C798E0E0E0937F01E093800117
:100226000E94C7040E948604A536E0E0BE0734F0AB
:100236000E948604A93CE0E0BE070CF026C0E091CF
:100246007F01F09180013097F1F40E948B041197A1
:1002560011F40E94B4040E948B04129711F40E94B8
:10026600A8040E948B04139711F40E949C040E9418
:100276008B04149711F40E9490040E948B04159726
:1002860014F00E94C0040E94C7040E948604A93C80
:10029600E0E0BE075CF0E0E0E0937D01E0937E01E4
:1002A600E1E0F0E0E0937F01F0938001ECEDF5E012
:1002B60060E070E05F01E1E8F1E0FA93EA93EEE7CF
:1002C600F0E0FA93EA93F5010E9404060E945306B1
:1002D60084E00E94C0032896E0E00E948204A1E820
:1002E600B1E097D0E6E00E948204A7E6B1E091D0A3
:1002F6000895E0E0EABBEBBBEFEFE7BBE0E0E8BB6D
:10030600EFEFE4BBE0E0E5BBE1BBE2BBE5E6E3BF64
:10031600E0E0E2BFECBFEFBDEEBDEDBDECBDE7BD7D
:10032600E6BDEBBDEABDE9BDE8BDE2BDE7E0E5BD82
:10033600E2EBE4BDE0E0E3BDE1E4E9BFE0E0E5BF18
:10034600E4BFEAB9E0E8E8B9E0E0E0BFE6B9EDB954
:10035600E6BF0895AA93E5B3EF70AE2FE881E07F7C
:10036600EA2BE5BB8DE08A95F1F7AA9A8DE08A958E
:10037600F1F7AA988DE08A95F1F789C0AA93A8812A
:10038600E9DFE881E295E883A881E4DF85E88A95DC
:10039600F1F77DC0AA93E881F0E0EE56FE4FE081CA
:1003A600A981AE0FEBDFE981E0939601E881E09346
:1003B600970122960895A2E00E94CF04ACE0DEDF0A
:1003C600A1E00E94CF04E0E0E0939701E09396015C
:1003D6000895AA93A881AA3031F0E0919801A091DE
:1003E6009601AE1760F0E0E0EA93A0919701AF5F47
:1003F600A0939701CFDFA881AA3009F448C0E09105
:100406009601EF5FE0939601A89AA881B7DFA898B6
:100416003EC0BA93AA931A93A981BA81ED91A98392
:10042600BA831E2FE03019F0A12FD3DFF5CF188144
:1004360023960895AA93E4B3E06FE4BBA29AA09A28
:10044600A19AAA98A898A998E881E0939801E058FB
:10045600E0939401E881E054E0939501A4E1B0E0D3
:100466000E9409050E94D5040E94D5040E94D50465
:10047600A0E270DF88EC90E00197F1F7A8E27EDF5A
:10048600A4E07CDFA5E87ADFA6E078DF94DF21969A
:100496000895BA93AA931A930A93AA81BB811296D6
:1004A6000E943C06309759F1AA81BB8114960E949E
:1004B6003C068F01309761F00230E0E01E0798F0AD
:1004C600F80131978F01AA81BB811496ED93FC93B5
:1004D600AA81BB811296ED91FD913196FE93EE9322
:1004E6003197AC81A083AA81BB810E943C06FF2381
:1004F6002AF0ED91FD913196FE93EE9306C0AA8106
:10050600BB81EFEFFFEFED93FC93198108812596F0
:100516000895BA93AA9326970E945D0610E0AC85CB
:10052600BD85E0E0F0E0ED93FC93EA89FB89319626
:10053600EA8BFB8B3197E4912E2FE03009F415C13D
:10054600E12FE03039F4253211F411E002C00E94A7
:10055600DD040AC1E130A9F4253219F40E94DD0454
:1005660002C112E040E000E02D3211F401E0FCC0CF
:100576002B3211F44BE2F8C0203211F440E2F4C001
:1005860002C0E23039F450E013E0203311F4006881
:10059600EBC003C0E33009F0E7C0203310F02A3384
:1005A60008F007C0AAE05A9F502DE22FE0535E0FD5
:1005B600DBC0E22FE33649F40E94E404E889F989B6
:1005C600A481AA930E94EA04CEC0E33741F40E94B4
:1005D600E4040E94F0040E943C041E2F0AC0E03787
:1005E60061F40E94E4040E94F0040E9448041E2F55
:1005F600086002600F7730E034C0E43611F0E93667
:1006060011F4046002C0E53731F4E4E5F0E0EE836E
:10061600FF8315E00CC0E83511F4086003C0E83725
:1006260009F0A1C0EEE5F0E0EE83FF8314E002FFDF
:1006360014C00E94E4040E94FA04AB85AA233AF48B
:10064600EA85FB850E94F805EA87FB874DE2403084
:1006560011F01F5F01C00B7F04C00E94E4040E94DA
:10066600FA0400FD11C0151778F407FF08C002FF51
:1006760004C00B7F242F115001C020E301C020E2EB
:100686000E94DD045150EFCF312F01FF17C03030EB
:10069600A1F003FF06C0EE81FF812591EE83FF8363
:1006A60005C0AE81BF812D91AE83BF830E94DD045C
:1006B600503009F051503150EACF4BC020E3EE8163
:1006C600FF810E944006E887F987EE81FF81329616
:1006D600EE83FF83E885F985AA85BB85AE17BF073C
:1006E60050F02F5FA885B985EA85FB85EA1BFB0BD1
:1006F600EA87FB87EFCF2A3328F003FF02C0295F82
:1007060001C0295D04FD1AC0213320F4A885B985EE
:10071600119709F409C0531710F000FF01C013C068
:1007260020E207FF0BC020E3006102FF07C00B7F3A
:100736004A930E94EA04503009F051500E94DD04A9
:10074600503009F051503150A885B985129708F0FC
:10075600B5CF00FF08C0503031F05150E0E2EA93C7
:100766000E94EA04F8CF10E0E0CEAC85BD850E9479
:100776003C060E94640664960895FF92F82E26971A
:100786000E945F060E940205309719F4EFEFFFEF13
:1007960023C0DE0116960E94F4058D010E94020513
:1007A600EE83FF83E0E0E887E987DE011A960E9480
:1007B600F4050E943C06FA93EA931A930A93ECE432
:1007C600F2E0FA93EA93DE011A96A3DE9F01AE8168
:1007D600BF81E0E0EC93F9010E9466062A96FF903D
:1007E60008950E9458067B816A81F981E88177FB2A
:1007F600770F67FD7160972F9E5781F078F09831DB
:1008060090F4AA27BB27882708948795B795A795BC
:100816009A95D1F7EA23FB23682305C0E894772746
:10082600EE27FF2766276F77769508F4606877F9D5
:10083600A991B99189919991EA17FB0768077907F8
:1008460097FB08950E9458060E9449060E94F403E9
:100856000E944E0619F40E94440609C0E6F70E945B
:100866004406A0E0B0E080E89FE30E94A20524963B
:100876000895BA93AA93A991B991EE27FF276D918E
:10088600662311F03196FBCF0895BA93AA93AA274F
:10089600BB27E991F9910590002011F01196FBCF45
:1008A600FD0108950A921A92FA926A937A938A93AC
:1008B6009A93AA93BA93EA93FA93EFB7EA930895B1
:1008C600AAE5B0E00E941106DF01EFEFF0E00E941A
:1008D600290635960895AFEFB0E00E941106DF01B4
:1008E600E4E6F0E00E9429060E9404060E946F05D5
:1008F600DF01CB010E9425040E9438050895EA9382
:10090600A0E00C94CD01A0917D01B0917E010895E7
:10091600A0917B01B0917C010895C49AC598C698B0
:10092600C798ABE7B1E0ED91FD913196FE93EE935A
:100936000895C498C59AC698C798ABE7B1E0ED91FB
:10094600FD913196FE93EE930895C498C598C69A84
:10095600C798ABE7B1E0ED91FD913196FE93EE932A
:100966000895C498C598C698C79AABE7B1E0ED91CB
:10097600FD913196FE93EE930895E1E0F0E0E09369
:100986007B01F0937C010895ADE7B1E0ED91FD9117
:100996003196FE93EE9308950E94C101A3E0B0E064
:1009A6000C940905A0E30E94AD0188EC90E0019744
:1009B600F1F708952A93AD85BE85EF85F8890995E7
:1009C6000895E889F9893497E88BF98B0895AD8500
:1009D600BE85EF85F88909950895A889B989149681
:1009E6000E943C06EE83FF83AE81BF810895A889ED
:1009F600B98914960E943C06EA87FB870895DE01B2
:100A06001C960E94F4050E943C060895109639F043
:100A160080ED97E00197F1F7A8951197C9F708952A
:100A260050E8572711F45F93CAC05F3F31F0660F55
:100A3600000C57956795752F08955F9300200AF06F
:100A4600CAC0C3C050E8192E1522880F991F9527D2
:100A5600550F879550E8072E0522660F771F7527D5
:100A6600550F67950895689401C0E8945F93F2DF87
:100A7600703818F07F3F08F4A2C056E1571BAAF45D
:100A8600519558300EF4593030F0EFEFFFEF6FEF1D
:100A96007FE777F91AC077275523B9F0EE0FFF1FC6
:100AA600661F771F5A95D1F710C07727583028F060
:100AB600EF2FF62F672F5850F9CF552331F0769543
:100AC6006795F795E7955A95D1F700200AF491D0E6
:100AD6005F910895689401C0E89430976040704033
:100AE600B1F0002426F0772312F4009482D0172E5A
:100AF6007EE1112032F07A95EE0FFF1F661F111C62
:100B0600F9CFEF2FF62F612D5F938ADF5F9108955E
:100B16004F93AF01FD01DA01AB01BC01CA01402DC3
:100B2600012C142E4F910895EA0FFB1F681F08959C
:100B3600E095F0956095EF5FFF4F6F4F08955F93D7
:100B460081DF903849F150E81526703821F1572F8A
:100B5600591B2BF112F4DCDFFACF583118F0AA2713
:100B6600BB278827583028F0AB2FB82F8827585036
:100B7600F9CF552329F08695B795A7955A95D9F7B4
:100B8600502D512572F0D0DF38F46795F795E7952B
:100B9600739513F420C0BCDF43DF5F910895D8F747
:100BA600FBCFEA1BFB0B680B51F010F40094C0DF7F
:100BB600662392F3EE0FFF1F661F7A95CBF7EE279B
:100BC600FF27662777275F910895EFEFFFEF6FE71F
:100BD6007FEF5F910895EFEFFFEF6FE77FE75F919C
:100BE60008950024AF0DB01D0895F195E195F040EC
:100BF6000895F09560957095E195FF4F6F4F7F4F83
:100C060008956F2F660F660B762F0895FA9FF02DC5
:100C1600EB9FF00DEA9FE02DF10D08951CD0F6DF55
:100C26000EF4E3DF08950024112490E1AA0FBB1F00
:100C3600001C111C0E1A1F0A18F40E0E1F1E01C0EE
:100C4600A1609A9599F7FD01D001089504D0EBDFD4
:100C56000EF4CBDF0895E894F7FF02C0C6DF689470
:100C6600B7FF06C0A095B095119600F8039400FA58
:100C76000895ED91FC91119708950590F491E02D5A
:100C86000895E881F9816A817B810895A881B981F7
:100C96008A819B810895E883F9836A837B8308951B
:100CA6007A936A93FA93EA9308959A938A93BA93F6
:100CB600AA9308955A934A933A932A931A930A93B6
:100CC60008955D814C813B812A81198108810895AF
:00000001FF
