:0C0000000C9441000C946E000C94000065
:10000C000C9400000C9400000C9400000C94000064
:10001C000C9400000C9400000C9400000C94000054
:10002C000C9400000C9400000C9400000C94000044
:10003C000C9400000C9400000C9400000C94000034
:10004C000C9400000C9400001027E80364000A00D4
:10005C000100001000011000010025730043453A17
:10006C0046554C4C000A43453A25640080C00200BA
:10007C00620178000000F894EE27ECBBF1E0FBBFC6
:10008C00EBBFE5BF8DE0A2E0BB27ED938A95E9F7C6
:10009C0080E094E0A0E6ED930197E9F7EAE7F0E061
:1000AC0085919591009761F0A591B591059015906A
:1000BC00BF01F00105900D920197E1F7FB01F0CF24
:1000CC00EFE5EDBFE4E0EEBFC0E6D1E00C948B00B1
:1000DC000A921A92FA926A937A938A939A93AA93AF
:1000EC00BA93EA93FA93EFB7EA930E94A700E991C7
:1000FC00EFBFF991E991B991A99199918991799170
:10010C006991F99019900990189508D0A0E10E9476
:10011C004A017894E0E0E7BBFFCFFFCFE0E0EABB19
:10012C00EBBBE7BBE8BBE4BBE5BBE1BBE2BBEBB7BE
:10013C00E064EBBFE1E0E5BFE0E0E4BFE0E4EABF90
:10014C00089560976FD0B79906C0A0E6B1E0ED9125
:10015C00FD9131960DC0B39905C00E9439030E94E0
:10016C009C030CF007C0A0E6B1E0ED91FD91319736
:10017C00FE93EE930E943903A83EE3E0BE0761F4C0
:10018C00FE01FA93EA93E6E6F0E0FA93EA93E9E6E5
:10019C00F0E0662777270FC0FE01FA93EA93E1E7B8
:1001AC00F0E0FA93EA930E943903E8EEF3E0EA1BDD
:1001BC00FB0B0E948A030E94970384E00E94EC02CE
:1001CC002896DE0150D060960895AA93E5B3EF709F
:1001DC00AE2FE881E07FEA2BE5BB8DE08A95F1F745
:1001EC00AA9A8DE08A95F1F7AA988DE08A95F1F795
:1001FC0077C0AA93A881E9DFE881E295E883A8811A
:10020C00E4DF85E88A95F1F76BC0AA93E881F0E00A
:10021C00EE59FE4FE081A981AE0FEBDF598048808B
:10022C0022960895A2E00E943E03ACE0E2DFA1E03A
:10023C000E943E03E0E04E2E5E2E0895AA93A88104
:10024C00AA3011F0571448F0E0E0EA934394A42D3F
:10025C00DCDFA881AA3009F443C05394A89AA88182
:10026C00C8DFA8983DC0BA93AA931A93A981BA8102
:10027C00ED91A983BA831E2FE03019F0A12FDEDF98
:10028C00F5CF188123960895AA93E4B3E06FE4BBED
:10029C00A29AA09AA19AAA98A898A9987880E8817D
:1002AC00E058E0936401E881E054E0936501A4E137
:1002BC00B0E00E9478030E9444030E9444030E9411
:1002CC004403A0E282DF88EC90E00197F1F7A8E20A
:1002DC0090DFA4E08EDFA5E88CDFA6E08ADFA2DF4A
:1002EC0021960895BA93AA931A930A93AA81BB8173
:1002FC0012960E948F03309759F1AA81BB811496F4
:10030C000E948F038F01309761F00230E0E01E07EE
:10031C0098F0F80131978F01AA81BB811496ED9367
:10032C00FC93AA81BB811296ED91FD913196FE93BF
:10033C00EE933197AC81A083AA81BB810E948F037D
:10034C00FF232AF0ED91FD913196FE93EE9306C0BA
:10035C00AA81BB81EFEFFFEFED93FC93198108812C
:10036C0025960895BA93AA9326970E94A00310E0AD
:10037C00AC85BD85E0E0F0E0ED93FC93EA89FB8968
:10038C003196EA8BFB8B3197E4912E2FE03009F4F8
:10039C0015C1E12FE03039F4253211F411E002C01F
:1003AC000E944C030AC1E130A9F4253219F40E94D1
:1003BC004C0302C112E040E000E02D3211F401E0E8
:1003CC00FCC02B3211F44BE2F8C0203211F440E2A5
:1003DC00F4C002C0E23039F450E013E0203311F4E1
:1003EC000068EBC003C0E33009F0E7C0203310F025
:1003FC002A3308F007C0AAE05A9F502DE22FE05391
:10040C005E0FDBC0E22FE33649F40E945303E88908
:10041C00F989A481AA930E945903CEC0E33741F411
:10042C000E9453030E945F030E9420031E2F0AC0E8
:10043C00E03761F40E9453030E945F030E942C0377
:10044C001E2F086002600F7730E034C0E43611F0E4
:10045C00E93611F4046002C0E53731F4E4E5F0E06C
:10046C00EE83FF8315E00CC0E83511F4086003C07F
:10047C00E83709F0A1C0EEE5F0E0EE83FF8314E06D
:10048C0002FF14C00E9453030E946903AB85AA2388
:10049C003AF4EA85FB850E948603EA87FB874DE2E6
:1004AC00403011F01F5F01C00B7F04C00E9453034A
:1004BC000E94690300FD11C0151778F407FF08C0EE
:1004CC0002FF04C00B7F242F115001C020E301C098
:1004DC0020E20E944C035150EFCF312F01FF17C087
:1004EC003030A1F003FF06C0EE81FF812591EE8331
:1004FC00FF8305C0AE81BF812D91AE83BF830E9467
:10050C004C03503009F051503150EACF4BC020E32E
:10051C00EE81FF810E949303E887F987EE81FF81CA
:10052C003296EE83FF83E885F985AA85BB85AE17E5
:10053C00BF0750F02F5FA885B985EA85FB85EA1BBC
:10054C00FB0BEA87FB87EFCF2A3328F003FF02C0AF
:10055C00295F01C0295D04FD1AC0213320F4A88550
:10056C00B985119709F409C0531710F000FF01C0A9
:10057C0013C020E207FF0BC020E3006102FF07C09D
:10058C000B7F4A930E945903503009F051500E943E
:10059C004C03503009F051503150A885B985129751
:1005AC0008F0B5CF00FF08C0503031F05150E0E2F8
:1005BC00EA930E945903F8CF10E0E0CEAC85BD85DC
:1005CC000E948F030E94A70364960895FF92F82E51
:1005DC0026970E94A2030E947103309719F4EFEF43
:1005EC00FFEF23C0DE0116960E9482038D010E944C
:1005FC007103EE83FF83E0E0E887E987DE011A965A
:10060C000E9482030E948F03FA93EA931A930A932F
:10061C00E8E7F1E0FA93EA93DE011A96A3DE9F0174
:10062C00AE81BF81E0E0EC93F9010E94A9032A9608
:10063C00FF900895BA93AA93A991B991EE27FF2739
:10064C006D91662311F03196FBCF0895BA93AA935E
:10065C00AA27BB27E991F9910590002011F011967A
:10066C00FBCFFD010895A0916001B0916101089547
:10067C000E94FF00A3E0B0E00C947803A0E30E947A
:10068C00EB0088EC90E00197F1F708952A93AD8583
:10069C00BE85EF85F88909950895E889F98934971D
:1006AC00E88BF98B0895AD85BE85EF85F8890995A2
:1006BC000895A889B98914960E948F03EE83FF834D
:1006CC00AE81BF810895A889B98914960E948F03C1
:1006DC00EA87FB870895DE011C960E9482030E9424
:1006EC008F030895109639F080ED97E00197F1F79C
:1006FC00A8951197C9F708950024AF0DB01D089562
:10070C00F195E195F04008956F2F660F660B762FEB
:10071C000895ED91FC91119708950590F491E02DB9
:10072C0008957A936A93FA93EA93089500240A162B
:10073C000B0608955A934A933A932A931A930A9361
:10074C0008955D814C813B812A811981088108952E
:00000001FF
