:0C0000000C9441000C9400000C94A5002E
:10000C000C9400000C9400000C9400000C94000064
:10001C000C9400000C9400000C9400000C94000054
:10002C000C9400000C9400000C9400000C94000044
:10003C000C9400000C9400000C9400000C94000034
:10004C000C9400000C9400003031323334353637C8
:10005C00383941424344454610002000400080009E
:10006C0080C01000600154000700700164000200A1
:10007C0078016C000000F894EE27ECBBF1E0FBBFBC
:10008C00EBBFE5BF8DE0A2E0BB27ED938A95E9F7C6
:10009C0080E094E0A0E6ED930197E9F7EEE6F0E05E
:1000AC0085919591009761F0A591B591059015906A
:1000BC00BF01F00105900D920197E1F7FB01F0CF24
:1000CC00EFE5EDBFE4E0EEBFC0E6D1E00C94CE006E
:1000DC000E94740134E600E0043060F5E02FA0E7E4
:1000EC00B1E0F0E0EE0FFF1FAE0FBF1FEC91E8BBCD
:1000FC0014E1AAE0B0E00E946A01B09910E0B19955
:10010C0011E0B29912E0B39913E0143179F0E02FB9
:10011C00EE0FEE0FE10F3E2FE0EFE8BBB099FECFF4
:10012C00B199FECFB299FECFB399FECFE0EFE8BB09
:10013C000F5FD2CFE32F0E947901249608950A9283
:10014C001A92FA926A937A938A939A93AA93BA938D
:10015C00EA93FA93EFB7EA931A93BADF1E2FE0E013
:10016C00EA93A0E04FD0E12FF0E0E05AFE4FA081DF
:10017C0060D01991E991EFBFF991E991B991A991E9
:10018C009991899179916991F990199009901895A3
:10019C00E0E0EABBEBBBE0EFE7BBE0E0E8BBE4BBD5
:1001AC00E5BBE1BBE2BBEBB7E068EBBFECE0E5BF66
:1001BC00E0E0E4BFE0E8EABFA0E14FD0789488DF4C
:1001CC00FECFFFCFAA93EBB3EF70AE2FE881E07FA9
:1001DC00EA2BEBBB8DE08A95F1F7DA9A8DE08A95E4
:1001EC00F1F7DA988DE08A95F1F760C0AA93A881AF
:1001FC00E9DFE881E295E883A881E4DF85E88A9568
:10020C00F1F754C0AA93E881F0E0E858FE4FE08182
:10021C00A981AE0FEBDF5980488022960895A2E0A9
:10022C0047D0ACE0E3DFA1E043D0E0E04E2E5E2E01
:10023C000895AA93A881AA3011F0571440F0E0E079
:10024C00EA934394A42DDEDFA881AA3079F153946C
:10025C00D89AA881CBDFD89829C0AA93EAB3E06FCB
:10026C00EABBD29AD09AD19ADA98D898D998788051
:10027C00E881E058E0937A01E881E054E0937B0157
:10028C00A4E1B0E00E946A0118D017D016D0A0E209
:10029C0099DF88EC90E00197F1F7A8E2A7DFA4E0E2
:1002AC00A5DFA5E8A3DFA6E0A1DFB9DF21960895BD
:1002BC009DDFA3E0B0E00C946A01A0E383DF88EC3F
:1002CC0090E00197F1F70895109639F080ED97E0E2
:1002DC000197F1F7A8951197C9F708953A932A93C6
:1002EC001A930A9308953B812A81198108810895F4
:00000001FF
