:020000000C945E
:100002002F000C9400000C9400000C9400000C943F
:1000120000000C9400000C9400000C9400000C945E
:1000220000000C9400000C9400000C9400000C944E
:1000320000000C9400000C9400000C9400000C943E
:1000420000000C9400000C9400000C9400000C942E
:1000520000003F065B4F666D7D077F6FF894EE27C9
:10006200ECBBF1E0FBBFEBBFE5BF8DE0A2E0BB273D
:10007200ED938A95E9F780E094E0A0E6ED9301978D
:10008200E9F7EFE5EDBFE4E0EEBFC0E6D1E00C94A6
:100092004A00E2EDF4E0FA93EA930E94ED00A1E057
:1000A200B0E00E94A700F5CFFFCFBA93AA931A93AC
:1000B200E981FA81E130A0E0FA0721F4E0E0EABB4D
:1000C20019B317C0E230A0E0FA0721F4E0E0E7BB81
:1000D20016B30FC0E330A0E0FA0721F4E0E0E4BB7E
:1000E20013B307C0E430A0E0FA0719F4E0E0E1BB83
:1000F20010B3E12F188123960895BA93AA93EA8147
:10010200FB81E130A0E0FA0729F4EFEFEABBE881D6
:10011200EBBB1AC0E230A0E0FA0729F4EFEFE7BB2D
:10012200E881E8BB11C0E330A0E0FA0729F4EFEF61
:10013200E4BBE881E5BB08C0E430A0E0FA0721F4A3
:10014200EFEFE1BBE881E2BB24960895BA93AA934C
:100152002A978AE0A0E0B0E0E4E5F0E00E945201D4
:100162001A93AB85BC850E9456001E2F3AD0E170CF
:10017200F070EE603DD0A989BA89E8EEF3E00E9402
:10018200310139D0E270F070ED6032D0A989BA89BC
:10019200E4E6F0E03CD0E470F070EB6029D0A9898D
:1001A200BA89EAE0F0E033D0E870F070E76020D07E
:1001B200A989BA89EAE0F0E00E943601DE011396CD
:1001C200AE0FBF1FAC91BB2798DFA8ECB0E00E9436
:1001D2001001188161960895E3E0F0E0FA93EA9342
:1001E2000895E4E0F0E0FA93EA93E12FF0E0089555
:1001F200DF0183DFF1CFDE011396AE0FBF1FAC919B
:10020200BB277BDFA8ECB0E00E941001EACF0E947E
:100212003101DF01EAE0F0E00E943601ECCF1096F6
:1002220039F080ED97E00197F1F7A8951197C9F79A
:100232000895F195E195F04008950024112490E18C
:10024200AA0FBB1F001C111C0E1A1F0A18F40E0E57
:100252001F1E01C0A1609A9599F7FD01D001089572
:1002620012D0EBDF0EF4E5DF0895E894B7FF04C087
:10027200A095B09511966894F7FDDBDFDEDFFD01F6
:100282000EF4D7DF0895E894F7FF02C0D2DF689436
:10029200B7FF06C0A095B095119600F8039400FA36
:1002A2000895AC0FBD1F05900D928A95E1F7089550
:00000001FF
