:0E0000000C94ED000C9400000C9400000C9485
:10000E0000000C9400000C9400000C9400000C9462
:10001E0000000C9400000C9400000C9400000C9452
:10002E001A010C9400000C944C010C9400000C94DA
:10003E0000000C9400000C9400000C9400000C9432
:10004E0000000C9400001027E80364000A00010071
:10005E000010000110000100000000000000000070
:10006E005061727420322069732072756E6E696EE3
:10007E00670D0A0050617274203220697320656E1C
:10008E0064696E670D0A00506172742033206973C3
:10009E002072756E6E696E670D0A00506172742063
:1000AE003320697320656E64696E670D0A0054789B
:1000BE003A25630D0A0052783A2044617461206932
:1000CE0073206120696E746567657220616E6420AD
:1000DE003130202A2025633D2563300A0D004C4324
:1000EE00442044656C65746564210A0D002A2A2A31
:1000FE002A2A2A2A2A0D0A4D6963726F2050726FBE
:10010E00636573736F72204C616220495554202AC7
:10011E002A2A2A2A2A2A2A0A0D0052783A20456EBD
:10012E0064206F662074686520706172740D0A0019
:10013E0054783A2025630A0D0052783A20696E7081
:10014E007574206C65747465722069732025630A5A
:10015E000D00546865206672616D652069732063B9
:10016E006F72726563740D0A005468652066726161
:10017E006D65206D757374206265203520696E740F
:10018E00656765720D0A00696E636F7272656374DE
:10019E00206672616D652073697A650D0A0080C0F4
:1001AE000100020066000600040068000F006001F6
:1001BE00EC0017006F0160011E0086017701170029
:1001CE00A40195010200CB01AC010000F894EE27CA
:1001DE00ECBBF1E0FBBFEBBFE5BF8DE0A2E0BB27C0
:1001EE00ED938A95E9F780E094E0A0E6ED93019710
:1001FE00E9F7EEEAF1E085919591009761F0A5910E
:10020E00B59105901590BF01F00105900D920197E3
:10021E00E1F7FB01F0CFEFE5EDBFE4E0EEBFC0E6A6
:10022E00D1E00C947E01EA93FA93EFB7EA931A9316
:10023E000A931BB10CB1E12FEC7189F4E52D5394A7
:10024E00F0E0E554FE4F0083E8E0E51509F455248F
:10025E007394E8E0E71519F47724689420F809916F
:10026E00199125C01A937720F1F3E42D4394F0E011
:10027E00E554FE4F1081E8E0E41509F44424F894A7
:10028E007A947894E12F19910895EA93FA93EFB73F
:10029E00EA93882061F08A94E92D9394F0E0ED536F
:1002AE00FE4FE081ECB9E8E0E91509F49924E991F3
:1002BE00EFBFF991E9911895AA93E8E0E815E9F3F3
:1002CE00F894882011F45D990DC0E62D6394F0E04A
:1002DE00ED53FE4FA881A083E8E0E61509F46624ED
:1002EE00839402C0E881ECB978940C94D002E0E0DB
:1002FE00EABBEBBBE7BBE8BBE4BBE5BBE1BBE2BBE8
:10030E00EBB9E8EDEAB9E6E8E0BDE0E0E0BDE3E335
:10031E00E9B9A0E10E94A4027894EEE6F0E00E9412
:10032E005204A0DF1E2FA12F0FD0E2E8F0E00E94B2
:10033E005204E5E9F0E00E94520448D0E9EAF0E008
:10034E000E945204EACFFFCFAA93A881A03310F0E7
:10035E00AA3308F015C0ECEBF0E00E9459040E949D
:10036E006204E4ECF0E00E945904EE81FF27662758
:10037E0077270E94B40488E00E9414042A9625C0B0
:10038E00A881A43429F4A8D0A0E6B1E0C6D01DC03F
:10039E00A881A83429F4EBEFF0E00E94520415C0B6
:1003AE00A881A53431F4E8E2F1E00E945204F894F9
:1003BE000CC0EEE3F1E00E9459040E946204E7E4EF
:1003CE00F1E00E9459040E946204E3C02297E0E02B
:1003DE00E883E9830E94B90421E030E040E050E078
:1003EE0041DF1E2FA12F68DFE1E0F0E0E217F307F7
:1003FE0011F4183209F003C020E030E015C00024DB
:10040E000216030621F4103310F01A3308F003C05D
:10041E004F5F5F4F09C0113410F01B3708F004C056
:10042E00E1E0F0E0EE83FF8300240216030611F4F0
:10043E00193209F01FC0E5E0F0E0E417F50721F4EA
:10044E00EE81FF81309709F003C0AFE6B1E009C03D
:10045E00EE81FF81309719F0A6E8B1E002C0A4EA60
:10046E00B1E05BD021E030E040E050E0E0E0EE8330
:10047E00EF8301C0B5CF0E94C00428960895AA93B9
:10048E00E5B3EF70AE2FE881E07FEA2BE5BB8DE0A0
:10049E008A95F1F7AA9A8DE08A95F1F7AA988DE0E0
:1004AE008A95F1F776C0AA93A881E9DFE881E295F3
:1004BE00E883A881E4DF85E88A95F1F76AC0AA93FC
:1004CE00E881F0E0E553FE4FE081A981AE0FEBDF4E
:1004DE00B980A88022960895A2E00E946704ACE03D
:1004EE00E2DFA1E00E946704E0E0AE2EBE2E08958A
:1004FE00AA93A881AA3011F0BD1448F0E0E0EA9367
:10050E00A394AA2DDCDFA881AA3009F442C0B394CB
:10051E00A89AA881C8DFA8983CC0BA93AA931A9348
:10052E00A981BA81ED91A983BA831E2FE03019F00B
:10053E00A12FDEDFF5CF18813AC0AA93E4B3E06FA6
:10054E00E4BBA29AA09AA19AAA98A898A998D88032
:10055E00E881E058E093CD01E881E054E093CE01CC
:10056E00A4E1B0E00E949A040E946D040E946D0402
:10057E000E946D04A0E283DF88EC90E00197F1F712
:10058E00A8E291DFA4E08FDFA5E88DDFA6E08BDF88
:10059E00A3DF21960895BA93AA93AA810E946301BC
:1005AE00A881B981ED91FD913196FE93EE9323963C
:1005BE000895BA93AA9326970E94B90410E0AC85C9
:1005CE00BD85E0E0F0E0ED93FC93EA89FB8931967E
:1005DE00EA8BFB8B3197E4912E2FE03009F415C195
:1005EE00E12FE03039F4253211F411E002C00E94FF
:1005FE0075040AC1E130A9F4253219F40E9475047C
:10060E0002C112E040E000E02D3211F401E0FCC026
:10061E002B3211F44BE2F8C0203211F440E2F4C058
:10062E0002C0E23039F450E013E0203311F40068D8
:10063E00EBC003C0E33009F0E7C0203310F02A33DB
:10064E0008F007C0AAE05A9F502DE22FE0535E0F2C
:10065E00DBC0E22FE33649F40E947C04E889F98975
:10066E00A481AA930E948204CEC0E33741F40E9473
:10067E007C040E9488040E9439041E2F0AC0E037B1
:10068E0061F40E947C040E9488040E9445041E2F7F
:10069E00086002600F7730E034C0E43611F0E936BE
:1006AE0011F4046002C0E53731F4E4E5F0E0EE83C6
:1006BE00FF8315E00CC0E83511F4086003C0E8377D
:1006CE0009F0A1C0EEE5F0E0EE83FF8314E002FF37
:1006DE0014C00E947C040E949204AB85AA233AF4B3
:1006EE00EA85FB850E94A804EA87FB874DE240302D
:1006FE0011F01F5F01C00B7F04C00E947C040E949A
:10070E00920400FD11C0151778F407FF08C002FF10
:10071E0004C00B7F242F115001C020E301C020E242
:10072E000E9475045150EFCF312F01FF17C03030AA
:10073E00A1F003FF06C0EE81FF812591EE83FF83BA
:10074E0005C0AE81BF812D91AE83BF830E9475041B
:10075E00503009F051503150EACF4BC020E3EE81BA
:10076E00FF810E94B004E887F987EE81FF813296FF
:10077E00EE83FF83E885F985AA85BB85AE17BF0793
:10078E0050F02F5FA885B985EA85FB85EA1BFB0B28
:10079E00EA87FB87EFCF2A3328F003FF02C0295FD9
:1007AE0001C0295D04FD1AC0213320F4A885B98546
:1007BE00119709F409C0531710F000FF01C013C0C0
:1007CE0020E207FF0BC020E3006102FF07C00B7F92
:1007DE004A930E948204503009F051500E947504D1
:1007EE00503009F051503150A885B985129708F054
:1007FE00B5CF00FF08C0503031F05150E0E2EA931F
:10080E000E948204F8CF10E0E0CEAC85BD850E9438
:10081E00AC040E94C00464960895FF92F82E2697A9
:10082E001A930A93DE0114960E94A4048D01E0E04F
:10083E00EC83ED83EE83EF83DE0118960E94A40411
:10084E000E94AC04FA93EA931A930A93E2EDF2E053
:10085E00FA93EA93DE011896ACDE19810881289688
:10086E00FF900895BA93AA93A991B991EE27FF2705
:10087E006D91662311F03196FBCF0895BA93AA932A
:10088E00AA27BB27E991F9910590002011F0119646
:10089E00FBCFFD010895FA93EA9380E00E941404C1
:1008AE0022960895FA93EA93EA81FF27662777271F
:1008BE000E94B404089584E00E94140426960895BC
:1008CE000E945A02A3E0B0E00C949A04A0E30E94A6
:1008DE00460288EC90E00197F1F708952A93AD85D2
:1008EE00BE85EF85F88909950895E889F9893497C9
:1008FE00E88BF98B0895AD85BE85EF85F88909954E
:10090E000895A889B98914960E94AC04EE83FF83DA
:10091E00AE81BF810895A889B98914960E94AC044E
:10092E00EA87FB870895109639F080ED97E00197DE
:10093E00F1F7A8951197C9F708950024AF0DB01DD2
:10094E000895F195E195F0400895ED91FC91119780
:10095E0008950590F491E02D08957A936A93FA9391
:10096E00EA9308955A934A933A932A931A930A93C1
:10097E0008955D814C813B812A81198108810895FA
:00000001FF
